{"contracts/DPHRS.sol":{"DPHRS":{"abi":[{"anonymous":false,"inputs":[{"indexed":false,"internalType":"uint256","name":"patientId","type":"uint256"},{"indexed":false,"internalType":"uint256","name":"doctorId","type":"uint256"},{"indexed":false,"internalType":"uint256","name":"date","type":"uint256"},{"indexed":false,"internalType":"string","name":"appointmentHash","type":"string"}],"name":"AppointmentCreated","type":"event"},{"anonymous":false,"inputs":[{"indexed":false,"internalType":"uint256","name":"appointmentId","type":"uint256"},{"indexed":false,"internalType":"string","name":"newHash","type":"string"}],"name":"AppointmentModified","type":"event"},{"anonymous":false,"inputs":[{"indexed":false,"internalType":"uint256","name":"doctorId","type":"uint256"},{"indexed":false,"internalType":"string","name":"name","type":"string"},{"indexed":false,"internalType":"string","name":"specialization","type":"string"}],"name":"DoctorRegistered","type":"event"},{"anonymous":false,"inputs":[{"indexed":false,"internalType":"uint256","name":"patientId","type":"uint256"},{"indexed":false,"internalType":"uint256","name":"dataIndex","type":"uint256"}],"name":"HealthDataAccepted","type":"event"},{"anonymous":false,"inputs":[{"indexed":false,"internalType":"uint256","name":"patientId","type":"uint256"},{"indexed":false,"internalType":"uint256","name":"timestamp","type":"uint256"},{"indexed":false,"internalType":"string","name":"dataType","type":"string"},{"indexed":false,"internalType":"string","name":"newDataHash","type":"string"},{"indexed":false,"internalType":"address","name":"addedBy","type":"address"}],"name":"HealthDataAdded","type":"event"},{"anonymous":false,"inputs":[{"indexed":false,"internalType":"uint256","name":"patientId","type":"uint256"},{"indexed":false,"internalType":"uint256","name":"appointmentId","type":"uint256"}],"name":"ModificationAccepted","type":"event"},{"anonymous":false,"inputs":[{"indexed":false,"internalType":"uint256","name":"patientId","type":"uint256"},{"indexed":false,"internalType":"string","name":"name","type":"string"},{"indexed":false,"internalType":"uint256","name":"age","type":"uint256"}],"name":"PatientRegistered","type":"event"},{"inputs":[{"internalType":"uint256","name":"_patientId","type":"uint256"},{"internalType":"uint256","name":"_appointmentId","type":"uint256"}],"name":"acceptAppointmentModification","outputs":[],"stateMutability":"nonpayable","type":"function"},{"inputs":[{"internalType":"uint256","name":"_patientId","type":"uint256"},{"internalType":"uint256","name":"_dataIndex","type":"uint256"}],"name":"acceptHealthData","outputs":[],"stateMutability":"nonpayable","type":"function"},{"inputs":[{"internalType":"uint256","name":"_patientId","type":"uint256"},{"internalType":"string","name":"_dataHash","type":"string"},{"internalType":"string","name":"_dataType","type":"string"}],"name":"addHealthData","outputs":[],"stateMutability":"nonpayable","type":"function"},{"inputs":[{"internalType":"address","name":"","type":"address"}],"name":"addressToDoctorId","outputs":[{"internalType":"uint256","name":"","type":"uint256"}],"stateMutability":"view","type":"function"},{"inputs":[{"internalType":"address","name":"","type":"address"}],"name":"addressToPatientId","outputs":[{"internalType":"uint256","name":"","type":"uint256"}],"stateMutability":"view","type":"function"},{"inputs":[{"internalType":"uint256","name":"","type":"uint256"},{"internalType":"uint256","name":"","type":"uint256"}],"name":"appointments","outputs":[{"internalType":"uint256","name":"patientId","type":"uint256"},{"internalType":"uint256","name":"doctorId","type":"uint256"},{"internalType":"uint256","name":"date","type":"uint256"},{"internalType":"bool","name":"isModifiedByDoctor","type":"bool"},{"internalType":"bool","name":"isAcceptedByPatient","type":"bool"},{"internalType":"string","name":"appointmentHash","type":"string"}],"stateMutability":"view","type":"function"},{"inputs":[{"internalType":"uint256","name":"_patientId","type":"uint256"},{"internalType":"uint256","name":"_doctorId","type":"uint256"},{"internalType":"uint256","name":"_date","type":"uint256"},{"internalType":"string","name":"_appointmentHash","type":"string"}],"name":"createAppointment","outputs":[],"stateMutability":"nonpayable","type":"function"},{"inputs":[{"internalType":"uint256","name":"","type":"uint256"}],"name":"doctorDetails","outputs":[{"internalType":"address","name":"doctorAddress","type":"address"},{"internalType":"string","name":"doctorName","type":"string"},{"internalType":"string","name":"specialization","type":"string"},{"internalType":"bool","name":"isRegistered","type":"bool"}],"stateMutability":"view","type":"function"},{"inputs":[{"internalType":"uint256","name":"_patientId","type":"uint256"},{"internalType":"uint256","name":"_appointmentId","type":"uint256"},{"internalType":"string","name":"_newHash","type":"string"}],"name":"modifyAppointment","outputs":[],"stateMutability":"nonpayable","type":"function"},{"inputs":[{"internalType":"uint256","name":"_patientId","type":"uint256"},{"internalType":"uint256","name":"_dataIndex","type":"uint256"},{"internalType":"string","name":"_newDataHash","type":"string"}],"name":"modifyHealthData","outputs":[],"stateMutability":"nonpayable","type":"function"},{"inputs":[{"internalType":"uint256","name":"","type":"uint256"},{"internalType":"uint256","name":"","type":"uint256"}],"name":"patientData","outputs":[{"internalType":"uint256","name":"timestamp","type":"uint256"},{"internalType":"string","name":"dataHash","type":"string"},{"internalType":"string","name":"dataType","type":"string"},{"internalType":"address","name":"addedBy","type":"address"},{"internalType":"bool","name":"isAcceptedByPatient","type":"bool"}],"stateMutability":"view","type":"function"},{"inputs":[{"internalType":"uint256","name":"","type":"uint256"}],"name":"patientDetails","outputs":[{"internalType":"string","name":"name","type":"string"},{"internalType":"uint256","name":"age","type":"uint256"},{"internalType":"string","name":"photo","type":"string"},{"internalType":"bool","name":"isRegistered","type":"bool"}],"stateMutability":"view","type":"function"},{"inputs":[{"internalType":"string","name":"_name","type":"string"},{"internalType":"string","name":"_specialization","type":"string"}],"name":"registerDoctor","outputs":[],"stateMutability":"nonpayable","type":"function"},{"inputs":[{"internalType":"string","name":"_name","type":"string"},{"internalType":"uint256","name":"_age","type":"uint256"},{"internalType":"string","name":"_photo","type":"string"}],"name":"registerPatient","outputs":[],"stateMutability":"nonpayable","type":"function"}],"evm":{"bytecode":{"linkReferences":{},"object":"608060405260016006556001600755348015601957600080fd5b50612534806100296000396000f3fe608060405234801561001057600080fd5b50600436106100ea5760003560e01c806396197d201161008c578063cd9b33ee11610066578063cd9b33ee1461025e578063e6c0b5d214610293578063eba0c90a146102c6578063ef334472146102e2576100ea565b806396197d20146101f6578063c3dba6e414610226578063c75b8e9b14610242576100ea565b80637e4f5e4c116100c85780637e4f5e4c1461015b578063833a52701461018e578063833b46bb146101be578063891b14d3146101da576100ea565b8063085e3a8a146100ef5780631d14c36e1461012357806333abc51f1461013f575b600080fd5b61010960048036038101906101049190611584565b6102fe565b60405161011a9594939291906116bf565b60405180910390f35b61013d60048036038101906101389190611855565b61048e565b005b610159600480360381019061015491906118e0565b6105be565b005b6101756004803603810190610170919061194f565b6106e7565b604051610185949392919061197c565b60405180910390f35b6101a860048036038101906101a391906119fb565b610834565b6040516101b59190611a28565b60405180910390f35b6101d860048036038101906101d39190611a43565b61084c565b005b6101f460048036038101906101ef9190611abb565b6109ce565b005b610210600480360381019061020b91906119fb565b610b7c565b60405161021d9190611a28565b60405180910390f35b610240600480360381019061023b9190611584565b610b94565b005b61025c600480360381019061025791906118e0565b610d51565b005b61027860048036038101906102739190611584565b610f25565b60405161028a96959493929190611b3e565b60405180910390f35b6102ad60048036038101906102a8919061194f565b611020565b6040516102bd9493929190611ba6565b60405180910390f35b6102e060048036038101906102db9190611584565b61118d565b005b6102fc60048036038101906102f79190611bf9565b6112f0565b005b6005602052816000526040600020818154811061031a57600080fd5b90600052602060002090600402016000915091505080600001549080600101805461034490611cb3565b80601f016020809104026020016040519081016040528092919081815260200182805461037090611cb3565b80156103bd5780601f10610392576101008083540402835291602001916103bd565b820191906000526020600020905b8154815290600101906020018083116103a057829003601f168201915b5050505050908060020180546103d290611cb3565b80601f01602080910402602001604051908101604052809291908181526020018280546103fe90611cb3565b801561044b5780601f106104205761010080835404028352916020019161044b565b820191906000526020600020905b81548152906001019060200180831161042e57829003601f168201915b5050505050908060030160009054906101000a900473ffffffffffffffffffffffffffffffffffffffff16908060030160149054906101000a900460ff16905085565b6000600660008154809291906104a390611d13565b9190505590506040518060800160405280858152602001848152602001838152602001600115158152506001600083815260200190815260200160002060008201518160000190816104f59190611f07565b506020820151816001015560408201518160020190816105159190611f07565b5060608201518160030160006101000a81548160ff02191690831515021790555090505080600360003373ffffffffffffffffffffffffffffffffffffffff1673ffffffffffffffffffffffffffffffffffffffff168152602001908152602001600020819055507f53c85738a4d5d3ce9c2fed04da5de5d5601179e3cbe70f3cf6bd9aeb40a4f4c28185856040516105b093929190611fd9565b60405180910390a150505050565b600080600085815260200190815260200160002083815481106105e4576105e3612017565b5b90600052602060002090600502019050600460003373ffffffffffffffffffffffffffffffffffffffff1673ffffffffffffffffffffffffffffffffffffffff16815260200190815260200160002054816001015414610679576040517f08c379a000000000000000000000000000000000000000000000000000000000815260040161067090612092565b60405180910390fd5b8181600401908161068a9190611f07565b5060018160030160006101000a81548160ff0219169083151502179055507f9eddbcdbced50ca878c5e77168fd787508a2c4b19741c14e0cf8d910ecba41c783836040516106d99291906120b2565b60405180910390a150505050565b600160205280600052604060002060009150905080600001805461070a90611cb3565b80601f016020809104026020016040519081016040528092919081815260200182805461073690611cb3565b80156107835780601f1061075857610100808354040283529160200191610783565b820191906000526020600020905b81548152906001019060200180831161076657829003601f168201915b50505050509080600101549080600201805461079e90611cb3565b80601f01602080910402602001604051908101604052809291908181526020018280546107ca90611cb3565b80156108175780601f106107ec57610100808354040283529160200191610817565b820191906000526020600020905b8154815290600101906020018083116107fa57829003601f168201915b5050505050908060030160009054906101000a900460ff16905084565b60046020528060005260406000206000915090505481565b60006007600081548092919061086190611d13565b91905055905060405180608001604052803373ffffffffffffffffffffffffffffffffffffffff168152602001848152602001838152602001600115158152506002600083815260200190815260200160002060008201518160000160006101000a81548173ffffffffffffffffffffffffffffffffffffffff021916908373ffffffffffffffffffffffffffffffffffffffff16021790555060208201518160010190816109109190611f07565b5060408201518160020190816109269190611f07565b5060608201518160030160006101000a81548160ff02191690831515021790555090505080600460003373ffffffffffffffffffffffffffffffffffffffff1673ffffffffffffffffffffffffffffffffffffffff168152602001908152602001600020819055507f04779804869ba1b1a5c924f411a8e435b7d49cd7fd2881f31af835f35e70d4778184846040516109c1939291906120e2565b60405180910390a1505050565b83600360003373ffffffffffffffffffffffffffffffffffffffff1673ffffffffffffffffffffffffffffffffffffffff1681526020019081526020016000205414610a4f576040517f08c379a0000000000000000000000000000000000000000000000000000000008152600401610a4690612092565b60405180910390fd5b60006040518060c0016040528086815260200185815260200184815260200160001515815260200160001515815260200183815250905060008086815260200190815260200160002081908060018154018082558091505060019003906000526020600020906005020160009091909190915060008201518160000155602082015181600101556040820151816002015560608201518160030160006101000a81548160ff02191690831515021790555060808201518160030160016101000a81548160ff02191690831515021790555060a0820151816004019081610b359190611f07565b5050507f9aa6abc9a76d81b650e2dbcc2138ade61ad469e67fbfda2dcde9d5ec3db78b8685858585604051610b6d9493929190612127565b60405180910390a15050505050565b60036020528060005260406000206000915090505481565b81600360003373ffffffffffffffffffffffffffffffffffffffff1673ffffffffffffffffffffffffffffffffffffffff1681526020019081526020016000205414610c15576040517f08c379a0000000000000000000000000000000000000000000000000000000008152600401610c0c90612092565b60405180910390fd5b60056000838152602001908152602001600020805490508110610c6d576040517f08c379a0000000000000000000000000000000000000000000000000000000008152600401610c64906121bf565b60405180910390fd5b6000600560008481526020019081526020016000208281548110610c9457610c93612017565b5b906000526020600020906004020190508060030160149054906101000a900460ff1615610cf6576040517f08c379a0000000000000000000000000000000000000000000000000000000008152600401610ced9061222b565b60405180910390fd5b60018160030160146101000a81548160ff0219169083151502179055507f269ac4fbcc0dc513a7814b0c02c1b5ca2f26ff6d686a5692b03547e4329e72d08383604051610d4492919061224b565b60405180910390a1505050565b6000600460003373ffffffffffffffffffffffffffffffffffffffff1673ffffffffffffffffffffffffffffffffffffffff1681526020019081526020016000205403610dd3576040517f08c379a0000000000000000000000000000000000000000000000000000000008152600401610dca906122c0565b60405180910390fd5b60056000848152602001908152602001600020805490508210610e2b576040517f08c379a0000000000000000000000000000000000000000000000000000000008152600401610e22906121bf565b60405180910390fd5b6000600560008581526020019081526020016000208381548110610e5257610e51612017565b5b9060005260206000209060040201905081816001019081610e739190611f07565b50428160000181905550338160030160006101000a81548173ffffffffffffffffffffffffffffffffffffffff021916908373ffffffffffffffffffffffffffffffffffffffff16021790555060008160030160146101000a81548160ff0219169083151502179055507f53639744d7701fa4778ca6a910cec351d4b5de2bb93130f20564ae95d0bb60358442836002018533604051610f17959493929190612364565b60405180910390a150505050565b60006020528160005260406000208181548110610f4157600080fd5b9060005260206000209060050201600091509150508060000154908060010154908060020154908060030160009054906101000a900460ff16908060030160019054906101000a900460ff1690806004018054610f9d90611cb3565b80601f0160208091040260200160405190810160405280929190818152602001828054610fc990611cb3565b80156110165780601f10610feb57610100808354040283529160200191611016565b820191906000526020600020905b815481529060010190602001808311610ff957829003601f168201915b5050505050905086565b60026020528060005260406000206000915090508060000160009054906101000a900473ffffffffffffffffffffffffffffffffffffffff169080600101805461106990611cb3565b80601f016020809104026020016040519081016040528092919081815260200182805461109590611cb3565b80156110e25780601f106110b7576101008083540402835291602001916110e2565b820191906000526020600020905b8154815290600101906020018083116110c557829003601f168201915b5050505050908060020180546110f790611cb3565b80601f016020809104026020016040519081016040528092919081815260200182805461112390611cb3565b80156111705780601f1061114557610100808354040283529160200191611170565b820191906000526020600020905b81548152906001019060200180831161115357829003601f168201915b5050505050908060030160009054906101000a900460ff16905084565b81600360003373ffffffffffffffffffffffffffffffffffffffff1673ffffffffffffffffffffffffffffffffffffffff168152602001908152602001600020541461120e576040517f08c379a000000000000000000000000000000000000000000000000000000000815260040161120590612092565b60405180910390fd5b6000806000848152602001908152602001600020828154811061123457611233612017565b5b906000526020600020906005020190508060030160009054906101000a900460ff16611295576040517f08c379a000000000000000000000000000000000000000000000000000000000815260040161128c90612411565b60405180910390fd5b60018160030160016101000a81548160ff0219169083151502179055507fbe483784dca1d94ba4b11d15a9a35e9a62fa871f5d9c9f9eb27e0831d51374ae83836040516112e392919061224b565b60405180910390a1505050565b6000600460003373ffffffffffffffffffffffffffffffffffffffff1673ffffffffffffffffffffffffffffffffffffffff1681526020019081526020016000205403611372576040517f08c379a0000000000000000000000000000000000000000000000000000000008152600401611369906122c0565b60405180910390fd5b6001600084815260200190815260200160002060030160009054906101000a900460ff166113d5576040517f08c379a00000000000000000000000000000000000000000000000000000000081526004016113cc9061247d565b60405180910390fd5b60006040518060a001604052804281526020018481526020018381526020013373ffffffffffffffffffffffffffffffffffffffff168152602001600015158152509050600560008581526020019081526020016000208190806001815401808255809150506001900390600052602060002090600402016000909190919091506000820151816000015560208201518160010190816114759190611f07565b50604082015181600201908161148b9190611f07565b5060608201518160030160006101000a81548173ffffffffffffffffffffffffffffffffffffffff021916908373ffffffffffffffffffffffffffffffffffffffff16021790555060808201518160030160146101000a81548160ff02191690831515021790555050507f53639744d7701fa4778ca6a910cec351d4b5de2bb93130f20564ae95d0bb6035844284863360405161152c95949392919061249d565b60405180910390a150505050565b6000604051905090565b600080fd5b600080fd5b6000819050919050565b6115618161154e565b811461156c57600080fd5b50565b60008135905061157e81611558565b92915050565b6000806040838503121561159b5761159a611544565b5b60006115a98582860161156f565b92505060206115ba8582860161156f565b9150509250929050565b6115cd8161154e565b82525050565b600081519050919050565b600082825260208201905092915050565b60005b8381101561160d5780820151818401526020810190506115f2565b60008484015250505050565b6000601f19601f8301169050919050565b6000611635826115d3565b61163f81856115de565b935061164f8185602086016115ef565b61165881611619565b840191505092915050565b600073ffffffffffffffffffffffffffffffffffffffff82169050919050565b600061168e82611663565b9050919050565b61169e81611683565b82525050565b60008115159050919050565b6116b9816116a4565b82525050565b600060a0820190506116d460008301886115c4565b81810360208301526116e6818761162a565b905081810360408301526116fa818661162a565b90506117096060830185611695565b61171660808301846116b0565b9695505050505050565b600080fd5b600080fd5b7f4e487b7100000000000000000000000000000000000000000000000000000000600052604160045260246000fd5b61176282611619565b810181811067ffffffffffffffff821117156117815761178061172a565b5b80604052505050565b600061179461153a565b90506117a08282611759565b919050565b600067ffffffffffffffff8211156117c0576117bf61172a565b5b6117c982611619565b9050602081019050919050565b82818337600083830152505050565b60006117f86117f3846117a5565b61178a565b90508281526020810184848401111561181457611813611725565b5b61181f8482856117d6565b509392505050565b600082601f83011261183c5761183b611720565b5b813561184c8482602086016117e5565b91505092915050565b60008060006060848603121561186e5761186d611544565b5b600084013567ffffffffffffffff81111561188c5761188b611549565b5b61189886828701611827565b93505060206118a98682870161156f565b925050604084013567ffffffffffffffff8111156118ca576118c9611549565b5b6118d686828701611827565b9150509250925092565b6000806000606084860312156118f9576118f8611544565b5b60006119078682870161156f565b93505060206119188682870161156f565b925050604084013567ffffffffffffffff81111561193957611938611549565b5b61194586828701611827565b9150509250925092565b60006020828403121561196557611964611544565b5b60006119738482850161156f565b91505092915050565b60006080820190508181036000830152611996818761162a565b90506119a560208301866115c4565b81810360408301526119b7818561162a565b90506119c660608301846116b0565b95945050505050565b6119d881611683565b81146119e357600080fd5b50565b6000813590506119f5816119cf565b92915050565b600060208284031215611a1157611a10611544565b5b6000611a1f848285016119e6565b91505092915050565b6000602082019050611a3d60008301846115c4565b92915050565b60008060408385031215611a5a57611a59611544565b5b600083013567ffffffffffffffff811115611a7857611a77611549565b5b611a8485828601611827565b925050602083013567ffffffffffffffff811115611aa557611aa4611549565b5b611ab185828601611827565b9150509250929050565b60008060008060808587031215611ad557611ad4611544565b5b6000611ae38782880161156f565b9450506020611af48782880161156f565b9350506040611b058782880161156f565b925050606085013567ffffffffffffffff811115611b2657611b25611549565b5b611b3287828801611827565b91505092959194509250565b600060c082019050611b5360008301896115c4565b611b6060208301886115c4565b611b6d60408301876115c4565b611b7a60608301866116b0565b611b8760808301856116b0565b81810360a0830152611b99818461162a565b9050979650505050505050565b6000608082019050611bbb6000830187611695565b8181036020830152611bcd818661162a565b90508181036040830152611be1818561162a565b9050611bf060608301846116b0565b95945050505050565b600080600060608486031215611c1257611c11611544565b5b6000611c208682870161156f565b935050602084013567ffffffffffffffff811115611c4157611c40611549565b5b611c4d86828701611827565b925050604084013567ffffffffffffffff811115611c6e57611c6d611549565b5b611c7a86828701611827565b9150509250925092565b7f4e487b7100000000000000000000000000000000000000000000000000000000600052602260045260246000fd5b60006002820490506001821680611ccb57607f821691505b602082108103611cde57611cdd611c84565b5b50919050565b7f4e487b7100000000000000000000000000000000000000000000000000000000600052601160045260246000fd5b6000611d1e8261154e565b91507fffffffffffffffffffffffffffffffffffffffffffffffffffffffffffffffff8203611d5057611d4f611ce4565b5b600182019050919050565b60008190508160005260206000209050919050565b60006020601f8301049050919050565b600082821b905092915050565b600060088302611dbd7fffffffffffffffffffffffffffffffffffffffffffffffffffffffffffffffff82611d80565b611dc78683611d80565b95508019841693508086168417925050509392505050565b6000819050919050565b6000611e04611dff611dfa8461154e565b611ddf565b61154e565b9050919050565b6000819050919050565b611e1e83611de9565b611e32611e2a82611e0b565b848454611d8d565b825550505050565b600090565b611e47611e3a565b611e52818484611e15565b505050565b5b81811015611e7657611e6b600082611e3f565b600181019050611e58565b5050565b601f821115611ebb57611e8c81611d5b565b611e9584611d70565b81016020851015611ea4578190505b611eb8611eb085611d70565b830182611e57565b50505b505050565b600082821c905092915050565b6000611ede60001984600802611ec0565b1980831691505092915050565b6000611ef78383611ecd565b9150826002028217905092915050565b611f10826115d3565b67ffffffffffffffff811115611f2957611f2861172a565b5b611f338254611cb3565b611f3e828285611e7a565b600060209050601f831160018114611f715760008415611f5f578287015190505b611f698582611eeb565b865550611fd1565b601f198416611f7f86611d5b565b60005b82811015611fa757848901518255600182019150602085019450602081019050611f82565b86831015611fc45784890151611fc0601f891682611ecd565b8355505b6001600288020188555050505b505050505050565b6000606082019050611fee60008301866115c4565b8181036020830152612000818561162a565b905061200f60408301846115c4565b949350505050565b7f4e487b7100000000000000000000000000000000000000000000000000000000600052603260045260246000fd5b7f4e6f7420617574686f72697a6564000000000000000000000000000000000000600082015250565b600061207c600e836115de565b915061208782612046565b602082019050919050565b600060208201905081810360008301526120ab8161206f565b9050919050565b60006040820190506120c760008301856115c4565b81810360208301526120d9818461162a565b90509392505050565b60006060820190506120f760008301866115c4565b8181036020830152612109818561162a565b9050818103604083015261211d818461162a565b9050949350505050565b600060808201905061213c60008301876115c4565b61214960208301866115c4565b61215660408301856115c4565b8181036060830152612168818461162a565b905095945050505050565b7f496e76616c6964206461746120696e6465780000000000000000000000000000600082015250565b60006121a96012836115de565b91506121b482612173565b602082019050919050565b600060208201905081810360008301526121d88161219c565b9050919050565b7f4461746120616c72656164792061636365707465640000000000000000000000600082015250565b60006122156015836115de565b9150612220826121df565b602082019050919050565b6000602082019050818103600083015261224481612208565b9050919050565b600060408201905061226060008301856115c4565b61226d60208301846115c4565b9392505050565b7f4e6f742061207265676973746572656420646f63746f72000000000000000000600082015250565b60006122aa6017836115de565b91506122b582612274565b602082019050919050565b600060208201905081810360008301526122d98161229d565b9050919050565b600081546122ed81611cb3565b6122f781866115de565b9450600182166000811461231257600181146123285761235b565b60ff19831686528115156020028601935061235b565b61233185611d5b565b60005b8381101561235357815481890152600182019150602081019050612334565b808801955050505b50505092915050565b600060a08201905061237960008301886115c4565b61238660208301876115c4565b818103604083015261239881866122e0565b905081810360608301526123ac818561162a565b90506123bb6080830184611695565b9695505050505050565b7f4e6f206d6f64696669636174696f6e20746f2061636365707400000000000000600082015250565b60006123fb6019836115de565b9150612406826123c5565b602082019050919050565b6000602082019050818103600083015261242a816123ee565b9050919050565b7f50617469656e74206e6f74207265676973746572656400000000000000000000600082015250565b60006124676016836115de565b915061247282612431565b602082019050919050565b600060208201905081810360008301526124968161245a565b9050919050565b600060a0820190506124b260008301886115c4565b6124bf60208301876115c4565b81810360408301526124d1818661162a565b905081810360608301526124e5818561162a565b90506124f46080830184611695565b969550505050505056fea264697066735822122012e6c92798ab2167199125fbd9c7a1712515e2d1297e15bd83242719cdb7b44f64736f6c634300081b0033","opcodes":"PUSH1 0x80 PUSH1 0x40 MSTORE PUSH1 0x1 PUSH1 0x6 SSTORE PUSH1 0x1 PUSH1 0x7 SSTORE CALLVALUE DUP1 ISZERO PUSH1 0x19 JUMPI PUSH1 0x0 DUP1 REVERT JUMPDEST POP PUSH2 0x2534 DUP1 PUSH2 0x29 PUSH1 0x0 CODECOPY PUSH1 0x0 RETURN INVALID PUSH1 0x80 PUSH1 0x40 MSTORE CALLVALUE DUP1 ISZERO PUSH2 0x10 JUMPI PUSH1 0x0 DUP1 REVERT JUMPDEST POP PUSH1 0x4 CALLDATASIZE LT PUSH2 0xEA JUMPI PUSH1 0x0 CALLDATALOAD PUSH1 0xE0 SHR DUP1 PUSH4 0x96197D20 GT PUSH2 0x8C JUMPI DUP1 PUSH4 0xCD9B33EE GT PUSH2 0x66 JUMPI DUP1 PUSH4 0xCD9B33EE EQ PUSH2 0x25E JUMPI DUP1 PUSH4 0xE6C0B5D2 EQ PUSH2 0x293 JUMPI DUP1 PUSH4 0xEBA0C90A EQ PUSH2 0x2C6 JUMPI DUP1 PUSH4 0xEF334472 EQ PUSH2 0x2E2 JUMPI PUSH2 0xEA JUMP JUMPDEST DUP1 PUSH4 0x96197D20 EQ PUSH2 0x1F6 JUMPI DUP1 PUSH4 0xC3DBA6E4 EQ PUSH2 0x226 JUMPI DUP1 PUSH4 0xC75B8E9B EQ PUSH2 0x242 JUMPI PUSH2 0xEA JUMP JUMPDEST DUP1 PUSH4 0x7E4F5E4C GT PUSH2 0xC8 JUMPI DUP1 PUSH4 0x7E4F5E4C EQ PUSH2 0x15B JUMPI DUP1 PUSH4 0x833A5270 EQ PUSH2 0x18E JUMPI DUP1 PUSH4 0x833B46BB EQ PUSH2 0x1BE JUMPI DUP1 PUSH4 0x891B14D3 EQ PUSH2 0x1DA JUMPI PUSH2 0xEA JUMP JUMPDEST DUP1 PUSH4 0x85E3A8A EQ PUSH2 0xEF JUMPI DUP1 PUSH4 0x1D14C36E EQ PUSH2 0x123 JUMPI DUP1 PUSH4 0x33ABC51F EQ PUSH2 0x13F JUMPI JUMPDEST PUSH1 0x0 DUP1 REVERT JUMPDEST PUSH2 0x109 PUSH1 0x4 DUP1 CALLDATASIZE SUB DUP2 ADD SWAP1 PUSH2 0x104 SWAP2 SWAP1 PUSH2 0x1584 JUMP JUMPDEST PUSH2 0x2FE JUMP JUMPDEST PUSH1 0x40 MLOAD PUSH2 0x11A SWAP6 SWAP5 SWAP4 SWAP3 SWAP2 SWAP1 PUSH2 0x16BF JUMP JUMPDEST PUSH1 0x40 MLOAD DUP1 SWAP2 SUB SWAP1 RETURN JUMPDEST PUSH2 0x13D PUSH1 0x4 DUP1 CALLDATASIZE SUB DUP2 ADD SWAP1 PUSH2 0x138 SWAP2 SWAP1 PUSH2 0x1855 JUMP JUMPDEST PUSH2 0x48E JUMP JUMPDEST STOP JUMPDEST PUSH2 0x159 PUSH1 0x4 DUP1 CALLDATASIZE SUB DUP2 ADD SWAP1 PUSH2 0x154 SWAP2 SWAP1 PUSH2 0x18E0 JUMP JUMPDEST PUSH2 0x5BE JUMP JUMPDEST STOP JUMPDEST PUSH2 0x175 PUSH1 0x4 DUP1 CALLDATASIZE SUB DUP2 ADD SWAP1 PUSH2 0x170 SWAP2 SWAP1 PUSH2 0x194F JUMP JUMPDEST PUSH2 0x6E7 JUMP JUMPDEST PUSH1 0x40 MLOAD PUSH2 0x185 SWAP5 SWAP4 SWAP3 SWAP2 SWAP1 PUSH2 0x197C JUMP JUMPDEST PUSH1 0x40 MLOAD DUP1 SWAP2 SUB SWAP1 RETURN JUMPDEST PUSH2 0x1A8 PUSH1 0x4 DUP1 CALLDATASIZE SUB DUP2 ADD SWAP1 PUSH2 0x1A3 SWAP2 SWAP1 PUSH2 0x19FB JUMP JUMPDEST PUSH2 0x834 JUMP JUMPDEST PUSH1 0x40 MLOAD PUSH2 0x1B5 SWAP2 SWAP1 PUSH2 0x1A28 JUMP JUMPDEST PUSH1 0x40 MLOAD DUP1 SWAP2 SUB SWAP1 RETURN JUMPDEST PUSH2 0x1D8 PUSH1 0x4 DUP1 CALLDATASIZE SUB DUP2 ADD SWAP1 PUSH2 0x1D3 SWAP2 SWAP1 PUSH2 0x1A43 JUMP JUMPDEST PUSH2 0x84C JUMP JUMPDEST STOP JUMPDEST PUSH2 0x1F4 PUSH1 0x4 DUP1 CALLDATASIZE SUB DUP2 ADD SWAP1 PUSH2 0x1EF SWAP2 SWAP1 PUSH2 0x1ABB JUMP JUMPDEST PUSH2 0x9CE JUMP JUMPDEST STOP JUMPDEST PUSH2 0x210 PUSH1 0x4 DUP1 CALLDATASIZE SUB DUP2 ADD SWAP1 PUSH2 0x20B SWAP2 SWAP1 PUSH2 0x19FB JUMP JUMPDEST PUSH2 0xB7C JUMP JUMPDEST PUSH1 0x40 MLOAD PUSH2 0x21D SWAP2 SWAP1 PUSH2 0x1A28 JUMP JUMPDEST PUSH1 0x40 MLOAD DUP1 SWAP2 SUB SWAP1 RETURN JUMPDEST PUSH2 0x240 PUSH1 0x4 DUP1 CALLDATASIZE SUB DUP2 ADD SWAP1 PUSH2 0x23B SWAP2 SWAP1 PUSH2 0x1584 JUMP JUMPDEST PUSH2 0xB94 JUMP JUMPDEST STOP JUMPDEST PUSH2 0x25C PUSH1 0x4 DUP1 CALLDATASIZE SUB DUP2 ADD SWAP1 PUSH2 0x257 SWAP2 SWAP1 PUSH2 0x18E0 JUMP JUMPDEST PUSH2 0xD51 JUMP JUMPDEST STOP JUMPDEST PUSH2 0x278 PUSH1 0x4 DUP1 CALLDATASIZE SUB DUP2 ADD SWAP1 PUSH2 0x273 SWAP2 SWAP1 PUSH2 0x1584 JUMP JUMPDEST PUSH2 0xF25 JUMP JUMPDEST PUSH1 0x40 MLOAD PUSH2 0x28A SWAP7 SWAP6 SWAP5 SWAP4 SWAP3 SWAP2 SWAP1 PUSH2 0x1B3E JUMP JUMPDEST PUSH1 0x40 MLOAD DUP1 SWAP2 SUB SWAP1 RETURN JUMPDEST PUSH2 0x2AD PUSH1 0x4 DUP1 CALLDATASIZE SUB DUP2 ADD SWAP1 PUSH2 0x2A8 SWAP2 SWAP1 PUSH2 0x194F JUMP JUMPDEST PUSH2 0x1020 JUMP JUMPDEST PUSH1 0x40 MLOAD PUSH2 0x2BD SWAP5 SWAP4 SWAP3 SWAP2 SWAP1 PUSH2 0x1BA6 JUMP JUMPDEST PUSH1 0x40 MLOAD DUP1 SWAP2 SUB SWAP1 RETURN JUMPDEST PUSH2 0x2E0 PUSH1 0x4 DUP1 CALLDATASIZE SUB DUP2 ADD SWAP1 PUSH2 0x2DB SWAP2 SWAP1 PUSH2 0x1584 JUMP JUMPDEST PUSH2 0x118D JUMP JUMPDEST STOP JUMPDEST PUSH2 0x2FC PUSH1 0x4 DUP1 CALLDATASIZE SUB DUP2 ADD SWAP1 PUSH2 0x2F7 SWAP2 SWAP1 PUSH2 0x1BF9 JUMP JUMPDEST PUSH2 0x12F0 JUMP JUMPDEST STOP JUMPDEST PUSH1 0x5 PUSH1 0x20 MSTORE DUP2 PUSH1 0x0 MSTORE PUSH1 0x40 PUSH1 0x0 KECCAK256 DUP2 DUP2 SLOAD DUP2 LT PUSH2 0x31A JUMPI PUSH1 0x0 DUP1 REVERT JUMPDEST SWAP1 PUSH1 0x0 MSTORE PUSH1 0x20 PUSH1 0x0 KECCAK256 SWAP1 PUSH1 0x4 MUL ADD PUSH1 0x0 SWAP2 POP SWAP2 POP POP DUP1 PUSH1 0x0 ADD SLOAD SWAP1 DUP1 PUSH1 0x1 ADD DUP1 SLOAD PUSH2 0x344 SWAP1 PUSH2 0x1CB3 JUMP JUMPDEST DUP1 PUSH1 0x1F ADD PUSH1 0x20 DUP1 SWAP2 DIV MUL PUSH1 0x20 ADD PUSH1 0x40 MLOAD SWAP1 DUP2 ADD PUSH1 0x40 MSTORE DUP1 SWAP3 SWAP2 SWAP1 DUP2 DUP2 MSTORE PUSH1 0x20 ADD DUP3 DUP1 SLOAD PUSH2 0x370 SWAP1 PUSH2 0x1CB3 JUMP JUMPDEST DUP1 ISZERO PUSH2 0x3BD JUMPI DUP1 PUSH1 0x1F LT PUSH2 0x392 JUMPI PUSH2 0x100 DUP1 DUP4 SLOAD DIV MUL DUP4 MSTORE SWAP2 PUSH1 0x20 ADD SWAP2 PUSH2 0x3BD JUMP JUMPDEST DUP3 ADD SWAP2 SWAP1 PUSH1 0x0 MSTORE PUSH1 0x20 PUSH1 0x0 KECCAK256 SWAP1 JUMPDEST DUP2 SLOAD DUP2 MSTORE SWAP1 PUSH1 0x1 ADD SWAP1 PUSH1 0x20 ADD DUP1 DUP4 GT PUSH2 0x3A0 JUMPI DUP3 SWAP1 SUB PUSH1 0x1F AND DUP3 ADD SWAP2 JUMPDEST POP POP POP POP POP SWAP1 DUP1 PUSH1 0x2 ADD DUP1 SLOAD PUSH2 0x3D2 SWAP1 PUSH2 0x1CB3 JUMP JUMPDEST DUP1 PUSH1 0x1F ADD PUSH1 0x20 DUP1 SWAP2 DIV MUL PUSH1 0x20 ADD PUSH1 0x40 MLOAD SWAP1 DUP2 ADD PUSH1 0x40 MSTORE DUP1 SWAP3 SWAP2 SWAP1 DUP2 DUP2 MSTORE PUSH1 0x20 ADD DUP3 DUP1 SLOAD PUSH2 0x3FE SWAP1 PUSH2 0x1CB3 JUMP JUMPDEST DUP1 ISZERO PUSH2 0x44B JUMPI DUP1 PUSH1 0x1F LT PUSH2 0x420 JUMPI PUSH2 0x100 DUP1 DUP4 SLOAD DIV MUL DUP4 MSTORE SWAP2 PUSH1 0x20 ADD SWAP2 PUSH2 0x44B JUMP JUMPDEST DUP3 ADD SWAP2 SWAP1 PUSH1 0x0 MSTORE PUSH1 0x20 PUSH1 0x0 KECCAK256 SWAP1 JUMPDEST DUP2 SLOAD DUP2 MSTORE SWAP1 PUSH1 0x1 ADD SWAP1 PUSH1 0x20 ADD DUP1 DUP4 GT PUSH2 0x42E JUMPI DUP3 SWAP1 SUB PUSH1 0x1F AND DUP3 ADD SWAP2 JUMPDEST POP POP POP POP POP SWAP1 DUP1 PUSH1 0x3 ADD PUSH1 0x0 SWAP1 SLOAD SWAP1 PUSH2 0x100 EXP SWAP1 DIV PUSH20 0xFFFFFFFFFFFFFFFFFFFFFFFFFFFFFFFFFFFFFFFF AND SWAP1 DUP1 PUSH1 0x3 ADD PUSH1 0x14 SWAP1 SLOAD SWAP1 PUSH2 0x100 EXP SWAP1 DIV PUSH1 0xFF AND SWAP1 POP DUP6 JUMP JUMPDEST PUSH1 0x0 PUSH1 0x6 PUSH1 0x0 DUP2 SLOAD DUP1 SWAP3 SWAP2 SWAP1 PUSH2 0x4A3 SWAP1 PUSH2 0x1D13 JUMP JUMPDEST SWAP2 SWAP1 POP SSTORE SWAP1 POP PUSH1 0x40 MLOAD DUP1 PUSH1 0x80 ADD PUSH1 0x40 MSTORE DUP1 DUP6 DUP2 MSTORE PUSH1 0x20 ADD DUP5 DUP2 MSTORE PUSH1 0x20 ADD DUP4 DUP2 MSTORE PUSH1 0x20 ADD PUSH1 0x1 ISZERO ISZERO DUP2 MSTORE POP PUSH1 0x1 PUSH1 0x0 DUP4 DUP2 MSTORE PUSH1 0x20 ADD SWAP1 DUP2 MSTORE PUSH1 0x20 ADD PUSH1 0x0 KECCAK256 PUSH1 0x0 DUP3 ADD MLOAD DUP2 PUSH1 0x0 ADD SWAP1 DUP2 PUSH2 0x4F5 SWAP2 SWAP1 PUSH2 0x1F07 JUMP JUMPDEST POP PUSH1 0x20 DUP3 ADD MLOAD DUP2 PUSH1 0x1 ADD SSTORE PUSH1 0x40 DUP3 ADD MLOAD DUP2 PUSH1 0x2 ADD SWAP1 DUP2 PUSH2 0x515 SWAP2 SWAP1 PUSH2 0x1F07 JUMP JUMPDEST POP PUSH1 0x60 DUP3 ADD MLOAD DUP2 PUSH1 0x3 ADD PUSH1 0x0 PUSH2 0x100 EXP DUP2 SLOAD DUP2 PUSH1 0xFF MUL NOT AND SWAP1 DUP4 ISZERO ISZERO MUL OR SWAP1 SSTORE POP SWAP1 POP POP DUP1 PUSH1 0x3 PUSH1 0x0 CALLER PUSH20 0xFFFFFFFFFFFFFFFFFFFFFFFFFFFFFFFFFFFFFFFF AND PUSH20 0xFFFFFFFFFFFFFFFFFFFFFFFFFFFFFFFFFFFFFFFF AND DUP2 MSTORE PUSH1 0x20 ADD SWAP1 DUP2 MSTORE PUSH1 0x20 ADD PUSH1 0x0 KECCAK256 DUP2 SWAP1 SSTORE POP PUSH32 0x53C85738A4D5D3CE9C2FED04DA5DE5D5601179E3CBE70F3CF6BD9AEB40A4F4C2 DUP2 DUP6 DUP6 PUSH1 0x40 MLOAD PUSH2 0x5B0 SWAP4 SWAP3 SWAP2 SWAP1 PUSH2 0x1FD9 JUMP JUMPDEST PUSH1 0x40 MLOAD DUP1 SWAP2 SUB SWAP1 LOG1 POP POP POP POP JUMP JUMPDEST PUSH1 0x0 DUP1 PUSH1 0x0 DUP6 DUP2 MSTORE PUSH1 0x20 ADD SWAP1 DUP2 MSTORE PUSH1 0x20 ADD PUSH1 0x0 KECCAK256 DUP4 DUP2 SLOAD DUP2 LT PUSH2 0x5E4 JUMPI PUSH2 0x5E3 PUSH2 0x2017 JUMP JUMPDEST JUMPDEST SWAP1 PUSH1 0x0 MSTORE PUSH1 0x20 PUSH1 0x0 KECCAK256 SWAP1 PUSH1 0x5 MUL ADD SWAP1 POP PUSH1 0x4 PUSH1 0x0 CALLER PUSH20 0xFFFFFFFFFFFFFFFFFFFFFFFFFFFFFFFFFFFFFFFF AND PUSH20 0xFFFFFFFFFFFFFFFFFFFFFFFFFFFFFFFFFFFFFFFF AND DUP2 MSTORE PUSH1 0x20 ADD SWAP1 DUP2 MSTORE PUSH1 0x20 ADD PUSH1 0x0 KECCAK256 SLOAD DUP2 PUSH1 0x1 ADD SLOAD EQ PUSH2 0x679 JUMPI PUSH1 0x40 MLOAD PUSH32 0x8C379A000000000000000000000000000000000000000000000000000000000 DUP2 MSTORE PUSH1 0x4 ADD PUSH2 0x670 SWAP1 PUSH2 0x2092 JUMP JUMPDEST PUSH1 0x40 MLOAD DUP1 SWAP2 SUB SWAP1 REVERT JUMPDEST DUP2 DUP2 PUSH1 0x4 ADD SWAP1 DUP2 PUSH2 0x68A SWAP2 SWAP1 PUSH2 0x1F07 JUMP JUMPDEST POP PUSH1 0x1 DUP2 PUSH1 0x3 ADD PUSH1 0x0 PUSH2 0x100 EXP DUP2 SLOAD DUP2 PUSH1 0xFF MUL NOT AND SWAP1 DUP4 ISZERO ISZERO MUL OR SWAP1 SSTORE POP PUSH32 0x9EDDBCDBCED50CA878C5E77168FD787508A2C4B19741C14E0CF8D910ECBA41C7 DUP4 DUP4 PUSH1 0x40 MLOAD PUSH2 0x6D9 SWAP3 SWAP2 SWAP1 PUSH2 0x20B2 JUMP JUMPDEST PUSH1 0x40 MLOAD DUP1 SWAP2 SUB SWAP1 LOG1 POP POP POP POP JUMP JUMPDEST PUSH1 0x1 PUSH1 0x20 MSTORE DUP1 PUSH1 0x0 MSTORE PUSH1 0x40 PUSH1 0x0 KECCAK256 PUSH1 0x0 SWAP2 POP SWAP1 POP DUP1 PUSH1 0x0 ADD DUP1 SLOAD PUSH2 0x70A SWAP1 PUSH2 0x1CB3 JUMP JUMPDEST DUP1 PUSH1 0x1F ADD PUSH1 0x20 DUP1 SWAP2 DIV MUL PUSH1 0x20 ADD PUSH1 0x40 MLOAD SWAP1 DUP2 ADD PUSH1 0x40 MSTORE DUP1 SWAP3 SWAP2 SWAP1 DUP2 DUP2 MSTORE PUSH1 0x20 ADD DUP3 DUP1 SLOAD PUSH2 0x736 SWAP1 PUSH2 0x1CB3 JUMP JUMPDEST DUP1 ISZERO PUSH2 0x783 JUMPI DUP1 PUSH1 0x1F LT PUSH2 0x758 JUMPI PUSH2 0x100 DUP1 DUP4 SLOAD DIV MUL DUP4 MSTORE SWAP2 PUSH1 0x20 ADD SWAP2 PUSH2 0x783 JUMP JUMPDEST DUP3 ADD SWAP2 SWAP1 PUSH1 0x0 MSTORE PUSH1 0x20 PUSH1 0x0 KECCAK256 SWAP1 JUMPDEST DUP2 SLOAD DUP2 MSTORE SWAP1 PUSH1 0x1 ADD SWAP1 PUSH1 0x20 ADD DUP1 DUP4 GT PUSH2 0x766 JUMPI DUP3 SWAP1 SUB PUSH1 0x1F AND DUP3 ADD SWAP2 JUMPDEST POP POP POP POP POP SWAP1 DUP1 PUSH1 0x1 ADD SLOAD SWAP1 DUP1 PUSH1 0x2 ADD DUP1 SLOAD PUSH2 0x79E SWAP1 PUSH2 0x1CB3 JUMP JUMPDEST DUP1 PUSH1 0x1F ADD PUSH1 0x20 DUP1 SWAP2 DIV MUL PUSH1 0x20 ADD PUSH1 0x40 MLOAD SWAP1 DUP2 ADD PUSH1 0x40 MSTORE DUP1 SWAP3 SWAP2 SWAP1 DUP2 DUP2 MSTORE PUSH1 0x20 ADD DUP3 DUP1 SLOAD PUSH2 0x7CA SWAP1 PUSH2 0x1CB3 JUMP JUMPDEST DUP1 ISZERO PUSH2 0x817 JUMPI DUP1 PUSH1 0x1F LT PUSH2 0x7EC JUMPI PUSH2 0x100 DUP1 DUP4 SLOAD DIV MUL DUP4 MSTORE SWAP2 PUSH1 0x20 ADD SWAP2 PUSH2 0x817 JUMP JUMPDEST DUP3 ADD SWAP2 SWAP1 PUSH1 0x0 MSTORE PUSH1 0x20 PUSH1 0x0 KECCAK256 SWAP1 JUMPDEST DUP2 SLOAD DUP2 MSTORE SWAP1 PUSH1 0x1 ADD SWAP1 PUSH1 0x20 ADD DUP1 DUP4 GT PUSH2 0x7FA JUMPI DUP3 SWAP1 SUB PUSH1 0x1F AND DUP3 ADD SWAP2 JUMPDEST POP POP POP POP POP SWAP1 DUP1 PUSH1 0x3 ADD PUSH1 0x0 SWAP1 SLOAD SWAP1 PUSH2 0x100 EXP SWAP1 DIV PUSH1 0xFF AND SWAP1 POP DUP5 JUMP JUMPDEST PUSH1 0x4 PUSH1 0x20 MSTORE DUP1 PUSH1 0x0 MSTORE PUSH1 0x40 PUSH1 0x0 KECCAK256 PUSH1 0x0 SWAP2 POP SWAP1 POP SLOAD DUP2 JUMP JUMPDEST PUSH1 0x0 PUSH1 0x7 PUSH1 0x0 DUP2 SLOAD DUP1 SWAP3 SWAP2 SWAP1 PUSH2 0x861 SWAP1 PUSH2 0x1D13 JUMP JUMPDEST SWAP2 SWAP1 POP SSTORE SWAP1 POP PUSH1 0x40 MLOAD DUP1 PUSH1 0x80 ADD PUSH1 0x40 MSTORE DUP1 CALLER PUSH20 0xFFFFFFFFFFFFFFFFFFFFFFFFFFFFFFFFFFFFFFFF AND DUP2 MSTORE PUSH1 0x20 ADD DUP5 DUP2 MSTORE PUSH1 0x20 ADD DUP4 DUP2 MSTORE PUSH1 0x20 ADD PUSH1 0x1 ISZERO ISZERO DUP2 MSTORE POP PUSH1 0x2 PUSH1 0x0 DUP4 DUP2 MSTORE PUSH1 0x20 ADD SWAP1 DUP2 MSTORE PUSH1 0x20 ADD PUSH1 0x0 KECCAK256 PUSH1 0x0 DUP3 ADD MLOAD DUP2 PUSH1 0x0 ADD PUSH1 0x0 PUSH2 0x100 EXP DUP2 SLOAD DUP2 PUSH20 0xFFFFFFFFFFFFFFFFFFFFFFFFFFFFFFFFFFFFFFFF MUL NOT AND SWAP1 DUP4 PUSH20 0xFFFFFFFFFFFFFFFFFFFFFFFFFFFFFFFFFFFFFFFF AND MUL OR SWAP1 SSTORE POP PUSH1 0x20 DUP3 ADD MLOAD DUP2 PUSH1 0x1 ADD SWAP1 DUP2 PUSH2 0x910 SWAP2 SWAP1 PUSH2 0x1F07 JUMP JUMPDEST POP PUSH1 0x40 DUP3 ADD MLOAD DUP2 PUSH1 0x2 ADD SWAP1 DUP2 PUSH2 0x926 SWAP2 SWAP1 PUSH2 0x1F07 JUMP JUMPDEST POP PUSH1 0x60 DUP3 ADD MLOAD DUP2 PUSH1 0x3 ADD PUSH1 0x0 PUSH2 0x100 EXP DUP2 SLOAD DUP2 PUSH1 0xFF MUL NOT AND SWAP1 DUP4 ISZERO ISZERO MUL OR SWAP1 SSTORE POP SWAP1 POP POP DUP1 PUSH1 0x4 PUSH1 0x0 CALLER PUSH20 0xFFFFFFFFFFFFFFFFFFFFFFFFFFFFFFFFFFFFFFFF AND PUSH20 0xFFFFFFFFFFFFFFFFFFFFFFFFFFFFFFFFFFFFFFFF AND DUP2 MSTORE PUSH1 0x20 ADD SWAP1 DUP2 MSTORE PUSH1 0x20 ADD PUSH1 0x0 KECCAK256 DUP2 SWAP1 SSTORE POP PUSH32 0x4779804869BA1B1A5C924F411A8E435B7D49CD7FD2881F31AF835F35E70D477 DUP2 DUP5 DUP5 PUSH1 0x40 MLOAD PUSH2 0x9C1 SWAP4 SWAP3 SWAP2 SWAP1 PUSH2 0x20E2 JUMP JUMPDEST PUSH1 0x40 MLOAD DUP1 SWAP2 SUB SWAP1 LOG1 POP POP POP JUMP JUMPDEST DUP4 PUSH1 0x3 PUSH1 0x0 CALLER PUSH20 0xFFFFFFFFFFFFFFFFFFFFFFFFFFFFFFFFFFFFFFFF AND PUSH20 0xFFFFFFFFFFFFFFFFFFFFFFFFFFFFFFFFFFFFFFFF AND DUP2 MSTORE PUSH1 0x20 ADD SWAP1 DUP2 MSTORE PUSH1 0x20 ADD PUSH1 0x0 KECCAK256 SLOAD EQ PUSH2 0xA4F JUMPI PUSH1 0x40 MLOAD PUSH32 0x8C379A000000000000000000000000000000000000000000000000000000000 DUP2 MSTORE PUSH1 0x4 ADD PUSH2 0xA46 SWAP1 PUSH2 0x2092 JUMP JUMPDEST PUSH1 0x40 MLOAD DUP1 SWAP2 SUB SWAP1 REVERT JUMPDEST PUSH1 0x0 PUSH1 0x40 MLOAD DUP1 PUSH1 0xC0 ADD PUSH1 0x40 MSTORE DUP1 DUP7 DUP2 MSTORE PUSH1 0x20 ADD DUP6 DUP2 MSTORE PUSH1 0x20 ADD DUP5 DUP2 MSTORE PUSH1 0x20 ADD PUSH1 0x0 ISZERO ISZERO DUP2 MSTORE PUSH1 0x20 ADD PUSH1 0x0 ISZERO ISZERO DUP2 MSTORE PUSH1 0x20 ADD DUP4 DUP2 MSTORE POP SWAP1 POP PUSH1 0x0 DUP1 DUP7 DUP2 MSTORE PUSH1 0x20 ADD SWAP1 DUP2 MSTORE PUSH1 0x20 ADD PUSH1 0x0 KECCAK256 DUP2 SWAP1 DUP1 PUSH1 0x1 DUP2 SLOAD ADD DUP1 DUP3 SSTORE DUP1 SWAP2 POP POP PUSH1 0x1 SWAP1 SUB SWAP1 PUSH1 0x0 MSTORE PUSH1 0x20 PUSH1 0x0 KECCAK256 SWAP1 PUSH1 0x5 MUL ADD PUSH1 0x0 SWAP1 SWAP2 SWAP1 SWAP2 SWAP1 SWAP2 POP PUSH1 0x0 DUP3 ADD MLOAD DUP2 PUSH1 0x0 ADD SSTORE PUSH1 0x20 DUP3 ADD MLOAD DUP2 PUSH1 0x1 ADD SSTORE PUSH1 0x40 DUP3 ADD MLOAD DUP2 PUSH1 0x2 ADD SSTORE PUSH1 0x60 DUP3 ADD MLOAD DUP2 PUSH1 0x3 ADD PUSH1 0x0 PUSH2 0x100 EXP DUP2 SLOAD DUP2 PUSH1 0xFF MUL NOT AND SWAP1 DUP4 ISZERO ISZERO MUL OR SWAP1 SSTORE POP PUSH1 0x80 DUP3 ADD MLOAD DUP2 PUSH1 0x3 ADD PUSH1 0x1 PUSH2 0x100 EXP DUP2 SLOAD DUP2 PUSH1 0xFF MUL NOT AND SWAP1 DUP4 ISZERO ISZERO MUL OR SWAP1 SSTORE POP PUSH1 0xA0 DUP3 ADD MLOAD DUP2 PUSH1 0x4 ADD SWAP1 DUP2 PUSH2 0xB35 SWAP2 SWAP1 PUSH2 0x1F07 JUMP JUMPDEST POP POP POP PUSH32 0x9AA6ABC9A76D81B650E2DBCC2138ADE61AD469E67FBFDA2DCDE9D5EC3DB78B86 DUP6 DUP6 DUP6 DUP6 PUSH1 0x40 MLOAD PUSH2 0xB6D SWAP5 SWAP4 SWAP3 SWAP2 SWAP1 PUSH2 0x2127 JUMP JUMPDEST PUSH1 0x40 MLOAD DUP1 SWAP2 SUB SWAP1 LOG1 POP POP POP POP POP JUMP JUMPDEST PUSH1 0x3 PUSH1 0x20 MSTORE DUP1 PUSH1 0x0 MSTORE PUSH1 0x40 PUSH1 0x0 KECCAK256 PUSH1 0x0 SWAP2 POP SWAP1 POP SLOAD DUP2 JUMP JUMPDEST DUP2 PUSH1 0x3 PUSH1 0x0 CALLER PUSH20 0xFFFFFFFFFFFFFFFFFFFFFFFFFFFFFFFFFFFFFFFF AND PUSH20 0xFFFFFFFFFFFFFFFFFFFFFFFFFFFFFFFFFFFFFFFF AND DUP2 MSTORE PUSH1 0x20 ADD SWAP1 DUP2 MSTORE PUSH1 0x20 ADD PUSH1 0x0 KECCAK256 SLOAD EQ PUSH2 0xC15 JUMPI PUSH1 0x40 MLOAD PUSH32 0x8C379A000000000000000000000000000000000000000000000000000000000 DUP2 MSTORE PUSH1 0x4 ADD PUSH2 0xC0C SWAP1 PUSH2 0x2092 JUMP JUMPDEST PUSH1 0x40 MLOAD DUP1 SWAP2 SUB SWAP1 REVERT JUMPDEST PUSH1 0x5 PUSH1 0x0 DUP4 DUP2 MSTORE PUSH1 0x20 ADD SWAP1 DUP2 MSTORE PUSH1 0x20 ADD PUSH1 0x0 KECCAK256 DUP1 SLOAD SWAP1 POP DUP2 LT PUSH2 0xC6D JUMPI PUSH1 0x40 MLOAD PUSH32 0x8C379A000000000000000000000000000000000000000000000000000000000 DUP2 MSTORE PUSH1 0x4 ADD PUSH2 0xC64 SWAP1 PUSH2 0x21BF JUMP JUMPDEST PUSH1 0x40 MLOAD DUP1 SWAP2 SUB SWAP1 REVERT JUMPDEST PUSH1 0x0 PUSH1 0x5 PUSH1 0x0 DUP5 DUP2 MSTORE PUSH1 0x20 ADD SWAP1 DUP2 MSTORE PUSH1 0x20 ADD PUSH1 0x0 KECCAK256 DUP3 DUP2 SLOAD DUP2 LT PUSH2 0xC94 JUMPI PUSH2 0xC93 PUSH2 0x2017 JUMP JUMPDEST JUMPDEST SWAP1 PUSH1 0x0 MSTORE PUSH1 0x20 PUSH1 0x0 KECCAK256 SWAP1 PUSH1 0x4 MUL ADD SWAP1 POP DUP1 PUSH1 0x3 ADD PUSH1 0x14 SWAP1 SLOAD SWAP1 PUSH2 0x100 EXP SWAP1 DIV PUSH1 0xFF AND ISZERO PUSH2 0xCF6 JUMPI PUSH1 0x40 MLOAD PUSH32 0x8C379A000000000000000000000000000000000000000000000000000000000 DUP2 MSTORE PUSH1 0x4 ADD PUSH2 0xCED SWAP1 PUSH2 0x222B JUMP JUMPDEST PUSH1 0x40 MLOAD DUP1 SWAP2 SUB SWAP1 REVERT JUMPDEST PUSH1 0x1 DUP2 PUSH1 0x3 ADD PUSH1 0x14 PUSH2 0x100 EXP DUP2 SLOAD DUP2 PUSH1 0xFF MUL NOT AND SWAP1 DUP4 ISZERO ISZERO MUL OR SWAP1 SSTORE POP PUSH32 0x269AC4FBCC0DC513A7814B0C02C1B5CA2F26FF6D686A5692B03547E4329E72D0 DUP4 DUP4 PUSH1 0x40 MLOAD PUSH2 0xD44 SWAP3 SWAP2 SWAP1 PUSH2 0x224B JUMP JUMPDEST PUSH1 0x40 MLOAD DUP1 SWAP2 SUB SWAP1 LOG1 POP POP POP JUMP JUMPDEST PUSH1 0x0 PUSH1 0x4 PUSH1 0x0 CALLER PUSH20 0xFFFFFFFFFFFFFFFFFFFFFFFFFFFFFFFFFFFFFFFF AND PUSH20 0xFFFFFFFFFFFFFFFFFFFFFFFFFFFFFFFFFFFFFFFF AND DUP2 MSTORE PUSH1 0x20 ADD SWAP1 DUP2 MSTORE PUSH1 0x20 ADD PUSH1 0x0 KECCAK256 SLOAD SUB PUSH2 0xDD3 JUMPI PUSH1 0x40 MLOAD PUSH32 0x8C379A000000000000000000000000000000000000000000000000000000000 DUP2 MSTORE PUSH1 0x4 ADD PUSH2 0xDCA SWAP1 PUSH2 0x22C0 JUMP JUMPDEST PUSH1 0x40 MLOAD DUP1 SWAP2 SUB SWAP1 REVERT JUMPDEST PUSH1 0x5 PUSH1 0x0 DUP5 DUP2 MSTORE PUSH1 0x20 ADD SWAP1 DUP2 MSTORE PUSH1 0x20 ADD PUSH1 0x0 KECCAK256 DUP1 SLOAD SWAP1 POP DUP3 LT PUSH2 0xE2B JUMPI PUSH1 0x40 MLOAD PUSH32 0x8C379A000000000000000000000000000000000000000000000000000000000 DUP2 MSTORE PUSH1 0x4 ADD PUSH2 0xE22 SWAP1 PUSH2 0x21BF JUMP JUMPDEST PUSH1 0x40 MLOAD DUP1 SWAP2 SUB SWAP1 REVERT JUMPDEST PUSH1 0x0 PUSH1 0x5 PUSH1 0x0 DUP6 DUP2 MSTORE PUSH1 0x20 ADD SWAP1 DUP2 MSTORE PUSH1 0x20 ADD PUSH1 0x0 KECCAK256 DUP4 DUP2 SLOAD DUP2 LT PUSH2 0xE52 JUMPI PUSH2 0xE51 PUSH2 0x2017 JUMP JUMPDEST JUMPDEST SWAP1 PUSH1 0x0 MSTORE PUSH1 0x20 PUSH1 0x0 KECCAK256 SWAP1 PUSH1 0x4 MUL ADD SWAP1 POP DUP2 DUP2 PUSH1 0x1 ADD SWAP1 DUP2 PUSH2 0xE73 SWAP2 SWAP1 PUSH2 0x1F07 JUMP JUMPDEST POP TIMESTAMP DUP2 PUSH1 0x0 ADD DUP2 SWAP1 SSTORE POP CALLER DUP2 PUSH1 0x3 ADD PUSH1 0x0 PUSH2 0x100 EXP DUP2 SLOAD DUP2 PUSH20 0xFFFFFFFFFFFFFFFFFFFFFFFFFFFFFFFFFFFFFFFF MUL NOT AND SWAP1 DUP4 PUSH20 0xFFFFFFFFFFFFFFFFFFFFFFFFFFFFFFFFFFFFFFFF AND MUL OR SWAP1 SSTORE POP PUSH1 0x0 DUP2 PUSH1 0x3 ADD PUSH1 0x14 PUSH2 0x100 EXP DUP2 SLOAD DUP2 PUSH1 0xFF MUL NOT AND SWAP1 DUP4 ISZERO ISZERO MUL OR SWAP1 SSTORE POP PUSH32 0x53639744D7701FA4778CA6A910CEC351D4B5DE2BB93130F20564AE95D0BB6035 DUP5 TIMESTAMP DUP4 PUSH1 0x2 ADD DUP6 CALLER PUSH1 0x40 MLOAD PUSH2 0xF17 SWAP6 SWAP5 SWAP4 SWAP3 SWAP2 SWAP1 PUSH2 0x2364 JUMP JUMPDEST PUSH1 0x40 MLOAD DUP1 SWAP2 SUB SWAP1 LOG1 POP POP POP POP JUMP JUMPDEST PUSH1 0x0 PUSH1 0x20 MSTORE DUP2 PUSH1 0x0 MSTORE PUSH1 0x40 PUSH1 0x0 KECCAK256 DUP2 DUP2 SLOAD DUP2 LT PUSH2 0xF41 JUMPI PUSH1 0x0 DUP1 REVERT JUMPDEST SWAP1 PUSH1 0x0 MSTORE PUSH1 0x20 PUSH1 0x0 KECCAK256 SWAP1 PUSH1 0x5 MUL ADD PUSH1 0x0 SWAP2 POP SWAP2 POP POP DUP1 PUSH1 0x0 ADD SLOAD SWAP1 DUP1 PUSH1 0x1 ADD SLOAD SWAP1 DUP1 PUSH1 0x2 ADD SLOAD SWAP1 DUP1 PUSH1 0x3 ADD PUSH1 0x0 SWAP1 SLOAD SWAP1 PUSH2 0x100 EXP SWAP1 DIV PUSH1 0xFF AND SWAP1 DUP1 PUSH1 0x3 ADD PUSH1 0x1 SWAP1 SLOAD SWAP1 PUSH2 0x100 EXP SWAP1 DIV PUSH1 0xFF AND SWAP1 DUP1 PUSH1 0x4 ADD DUP1 SLOAD PUSH2 0xF9D SWAP1 PUSH2 0x1CB3 JUMP JUMPDEST DUP1 PUSH1 0x1F ADD PUSH1 0x20 DUP1 SWAP2 DIV MUL PUSH1 0x20 ADD PUSH1 0x40 MLOAD SWAP1 DUP2 ADD PUSH1 0x40 MSTORE DUP1 SWAP3 SWAP2 SWAP1 DUP2 DUP2 MSTORE PUSH1 0x20 ADD DUP3 DUP1 SLOAD PUSH2 0xFC9 SWAP1 PUSH2 0x1CB3 JUMP JUMPDEST DUP1 ISZERO PUSH2 0x1016 JUMPI DUP1 PUSH1 0x1F LT PUSH2 0xFEB JUMPI PUSH2 0x100 DUP1 DUP4 SLOAD DIV MUL DUP4 MSTORE SWAP2 PUSH1 0x20 ADD SWAP2 PUSH2 0x1016 JUMP JUMPDEST DUP3 ADD SWAP2 SWAP1 PUSH1 0x0 MSTORE PUSH1 0x20 PUSH1 0x0 KECCAK256 SWAP1 JUMPDEST DUP2 SLOAD DUP2 MSTORE SWAP1 PUSH1 0x1 ADD SWAP1 PUSH1 0x20 ADD DUP1 DUP4 GT PUSH2 0xFF9 JUMPI DUP3 SWAP1 SUB PUSH1 0x1F AND DUP3 ADD SWAP2 JUMPDEST POP POP POP POP POP SWAP1 POP DUP7 JUMP JUMPDEST PUSH1 0x2 PUSH1 0x20 MSTORE DUP1 PUSH1 0x0 MSTORE PUSH1 0x40 PUSH1 0x0 KECCAK256 PUSH1 0x0 SWAP2 POP SWAP1 POP DUP1 PUSH1 0x0 ADD PUSH1 0x0 SWAP1 SLOAD SWAP1 PUSH2 0x100 EXP SWAP1 DIV PUSH20 0xFFFFFFFFFFFFFFFFFFFFFFFFFFFFFFFFFFFFFFFF AND SWAP1 DUP1 PUSH1 0x1 ADD DUP1 SLOAD PUSH2 0x1069 SWAP1 PUSH2 0x1CB3 JUMP JUMPDEST DUP1 PUSH1 0x1F ADD PUSH1 0x20 DUP1 SWAP2 DIV MUL PUSH1 0x20 ADD PUSH1 0x40 MLOAD SWAP1 DUP2 ADD PUSH1 0x40 MSTORE DUP1 SWAP3 SWAP2 SWAP1 DUP2 DUP2 MSTORE PUSH1 0x20 ADD DUP3 DUP1 SLOAD PUSH2 0x1095 SWAP1 PUSH2 0x1CB3 JUMP JUMPDEST DUP1 ISZERO PUSH2 0x10E2 JUMPI DUP1 PUSH1 0x1F LT PUSH2 0x10B7 JUMPI PUSH2 0x100 DUP1 DUP4 SLOAD DIV MUL DUP4 MSTORE SWAP2 PUSH1 0x20 ADD SWAP2 PUSH2 0x10E2 JUMP JUMPDEST DUP3 ADD SWAP2 SWAP1 PUSH1 0x0 MSTORE PUSH1 0x20 PUSH1 0x0 KECCAK256 SWAP1 JUMPDEST DUP2 SLOAD DUP2 MSTORE SWAP1 PUSH1 0x1 ADD SWAP1 PUSH1 0x20 ADD DUP1 DUP4 GT PUSH2 0x10C5 JUMPI DUP3 SWAP1 SUB PUSH1 0x1F AND DUP3 ADD SWAP2 JUMPDEST POP POP POP POP POP SWAP1 DUP1 PUSH1 0x2 ADD DUP1 SLOAD PUSH2 0x10F7 SWAP1 PUSH2 0x1CB3 JUMP JUMPDEST DUP1 PUSH1 0x1F ADD PUSH1 0x20 DUP1 SWAP2 DIV MUL PUSH1 0x20 ADD PUSH1 0x40 MLOAD SWAP1 DUP2 ADD PUSH1 0x40 MSTORE DUP1 SWAP3 SWAP2 SWAP1 DUP2 DUP2 MSTORE PUSH1 0x20 ADD DUP3 DUP1 SLOAD PUSH2 0x1123 SWAP1 PUSH2 0x1CB3 JUMP JUMPDEST DUP1 ISZERO PUSH2 0x1170 JUMPI DUP1 PUSH1 0x1F LT PUSH2 0x1145 JUMPI PUSH2 0x100 DUP1 DUP4 SLOAD DIV MUL DUP4 MSTORE SWAP2 PUSH1 0x20 ADD SWAP2 PUSH2 0x1170 JUMP JUMPDEST DUP3 ADD SWAP2 SWAP1 PUSH1 0x0 MSTORE PUSH1 0x20 PUSH1 0x0 KECCAK256 SWAP1 JUMPDEST DUP2 SLOAD DUP2 MSTORE SWAP1 PUSH1 0x1 ADD SWAP1 PUSH1 0x20 ADD DUP1 DUP4 GT PUSH2 0x1153 JUMPI DUP3 SWAP1 SUB PUSH1 0x1F AND DUP3 ADD SWAP2 JUMPDEST POP POP POP POP POP SWAP1 DUP1 PUSH1 0x3 ADD PUSH1 0x0 SWAP1 SLOAD SWAP1 PUSH2 0x100 EXP SWAP1 DIV PUSH1 0xFF AND SWAP1 POP DUP5 JUMP JUMPDEST DUP2 PUSH1 0x3 PUSH1 0x0 CALLER PUSH20 0xFFFFFFFFFFFFFFFFFFFFFFFFFFFFFFFFFFFFFFFF AND PUSH20 0xFFFFFFFFFFFFFFFFFFFFFFFFFFFFFFFFFFFFFFFF AND DUP2 MSTORE PUSH1 0x20 ADD SWAP1 DUP2 MSTORE PUSH1 0x20 ADD PUSH1 0x0 KECCAK256 SLOAD EQ PUSH2 0x120E JUMPI PUSH1 0x40 MLOAD PUSH32 0x8C379A000000000000000000000000000000000000000000000000000000000 DUP2 MSTORE PUSH1 0x4 ADD PUSH2 0x1205 SWAP1 PUSH2 0x2092 JUMP JUMPDEST PUSH1 0x40 MLOAD DUP1 SWAP2 SUB SWAP1 REVERT JUMPDEST PUSH1 0x0 DUP1 PUSH1 0x0 DUP5 DUP2 MSTORE PUSH1 0x20 ADD SWAP1 DUP2 MSTORE PUSH1 0x20 ADD PUSH1 0x0 KECCAK256 DUP3 DUP2 SLOAD DUP2 LT PUSH2 0x1234 JUMPI PUSH2 0x1233 PUSH2 0x2017 JUMP JUMPDEST JUMPDEST SWAP1 PUSH1 0x0 MSTORE PUSH1 0x20 PUSH1 0x0 KECCAK256 SWAP1 PUSH1 0x5 MUL ADD SWAP1 POP DUP1 PUSH1 0x3 ADD PUSH1 0x0 SWAP1 SLOAD SWAP1 PUSH2 0x100 EXP SWAP1 DIV PUSH1 0xFF AND PUSH2 0x1295 JUMPI PUSH1 0x40 MLOAD PUSH32 0x8C379A000000000000000000000000000000000000000000000000000000000 DUP2 MSTORE PUSH1 0x4 ADD PUSH2 0x128C SWAP1 PUSH2 0x2411 JUMP JUMPDEST PUSH1 0x40 MLOAD DUP1 SWAP2 SUB SWAP1 REVERT JUMPDEST PUSH1 0x1 DUP2 PUSH1 0x3 ADD PUSH1 0x1 PUSH2 0x100 EXP DUP2 SLOAD DUP2 PUSH1 0xFF MUL NOT AND SWAP1 DUP4 ISZERO ISZERO MUL OR SWAP1 SSTORE POP PUSH32 0xBE483784DCA1D94BA4B11D15A9A35E9A62FA871F5D9C9F9EB27E0831D51374AE DUP4 DUP4 PUSH1 0x40 MLOAD PUSH2 0x12E3 SWAP3 SWAP2 SWAP1 PUSH2 0x224B JUMP JUMPDEST PUSH1 0x40 MLOAD DUP1 SWAP2 SUB SWAP1 LOG1 POP POP POP JUMP JUMPDEST PUSH1 0x0 PUSH1 0x4 PUSH1 0x0 CALLER PUSH20 0xFFFFFFFFFFFFFFFFFFFFFFFFFFFFFFFFFFFFFFFF AND PUSH20 0xFFFFFFFFFFFFFFFFFFFFFFFFFFFFFFFFFFFFFFFF AND DUP2 MSTORE PUSH1 0x20 ADD SWAP1 DUP2 MSTORE PUSH1 0x20 ADD PUSH1 0x0 KECCAK256 SLOAD SUB PUSH2 0x1372 JUMPI PUSH1 0x40 MLOAD PUSH32 0x8C379A000000000000000000000000000000000000000000000000000000000 DUP2 MSTORE PUSH1 0x4 ADD PUSH2 0x1369 SWAP1 PUSH2 0x22C0 JUMP JUMPDEST PUSH1 0x40 MLOAD DUP1 SWAP2 SUB SWAP1 REVERT JUMPDEST PUSH1 0x1 PUSH1 0x0 DUP5 DUP2 MSTORE PUSH1 0x20 ADD SWAP1 DUP2 MSTORE PUSH1 0x20 ADD PUSH1 0x0 KECCAK256 PUSH1 0x3 ADD PUSH1 0x0 SWAP1 SLOAD SWAP1 PUSH2 0x100 EXP SWAP1 DIV PUSH1 0xFF AND PUSH2 0x13D5 JUMPI PUSH1 0x40 MLOAD PUSH32 0x8C379A000000000000000000000000000000000000000000000000000000000 DUP2 MSTORE PUSH1 0x4 ADD PUSH2 0x13CC SWAP1 PUSH2 0x247D JUMP JUMPDEST PUSH1 0x40 MLOAD DUP1 SWAP2 SUB SWAP1 REVERT JUMPDEST PUSH1 0x0 PUSH1 0x40 MLOAD DUP1 PUSH1 0xA0 ADD PUSH1 0x40 MSTORE DUP1 TIMESTAMP DUP2 MSTORE PUSH1 0x20 ADD DUP5 DUP2 MSTORE PUSH1 0x20 ADD DUP4 DUP2 MSTORE PUSH1 0x20 ADD CALLER PUSH20 0xFFFFFFFFFFFFFFFFFFFFFFFFFFFFFFFFFFFFFFFF AND DUP2 MSTORE PUSH1 0x20 ADD PUSH1 0x0 ISZERO ISZERO DUP2 MSTORE POP SWAP1 POP PUSH1 0x5 PUSH1 0x0 DUP6 DUP2 MSTORE PUSH1 0x20 ADD SWAP1 DUP2 MSTORE PUSH1 0x20 ADD PUSH1 0x0 KECCAK256 DUP2 SWAP1 DUP1 PUSH1 0x1 DUP2 SLOAD ADD DUP1 DUP3 SSTORE DUP1 SWAP2 POP POP PUSH1 0x1 SWAP1 SUB SWAP1 PUSH1 0x0 MSTORE PUSH1 0x20 PUSH1 0x0 KECCAK256 SWAP1 PUSH1 0x4 MUL ADD PUSH1 0x0 SWAP1 SWAP2 SWAP1 SWAP2 SWAP1 SWAP2 POP PUSH1 0x0 DUP3 ADD MLOAD DUP2 PUSH1 0x0 ADD SSTORE PUSH1 0x20 DUP3 ADD MLOAD DUP2 PUSH1 0x1 ADD SWAP1 DUP2 PUSH2 0x1475 SWAP2 SWAP1 PUSH2 0x1F07 JUMP JUMPDEST POP PUSH1 0x40 DUP3 ADD MLOAD DUP2 PUSH1 0x2 ADD SWAP1 DUP2 PUSH2 0x148B SWAP2 SWAP1 PUSH2 0x1F07 JUMP JUMPDEST POP PUSH1 0x60 DUP3 ADD MLOAD DUP2 PUSH1 0x3 ADD PUSH1 0x0 PUSH2 0x100 EXP DUP2 SLOAD DUP2 PUSH20 0xFFFFFFFFFFFFFFFFFFFFFFFFFFFFFFFFFFFFFFFF MUL NOT AND SWAP1 DUP4 PUSH20 0xFFFFFFFFFFFFFFFFFFFFFFFFFFFFFFFFFFFFFFFF AND MUL OR SWAP1 SSTORE POP PUSH1 0x80 DUP3 ADD MLOAD DUP2 PUSH1 0x3 ADD PUSH1 0x14 PUSH2 0x100 EXP DUP2 SLOAD DUP2 PUSH1 0xFF MUL NOT AND SWAP1 DUP4 ISZERO ISZERO MUL OR SWAP1 SSTORE POP POP POP PUSH32 0x53639744D7701FA4778CA6A910CEC351D4B5DE2BB93130F20564AE95D0BB6035 DUP5 TIMESTAMP DUP5 DUP7 CALLER PUSH1 0x40 MLOAD PUSH2 0x152C SWAP6 SWAP5 SWAP4 SWAP3 SWAP2 SWAP1 PUSH2 0x249D JUMP JUMPDEST PUSH1 0x40 MLOAD DUP1 SWAP2 SUB SWAP1 LOG1 POP POP POP POP JUMP JUMPDEST PUSH1 0x0 PUSH1 0x40 MLOAD SWAP1 POP SWAP1 JUMP JUMPDEST PUSH1 0x0 DUP1 REVERT JUMPDEST PUSH1 0x0 DUP1 REVERT JUMPDEST PUSH1 0x0 DUP2 SWAP1 POP SWAP2 SWAP1 POP JUMP JUMPDEST PUSH2 0x1561 DUP2 PUSH2 0x154E JUMP JUMPDEST DUP2 EQ PUSH2 0x156C JUMPI PUSH1 0x0 DUP1 REVERT JUMPDEST POP JUMP JUMPDEST PUSH1 0x0 DUP2 CALLDATALOAD SWAP1 POP PUSH2 0x157E DUP2 PUSH2 0x1558 JUMP JUMPDEST SWAP3 SWAP2 POP POP JUMP JUMPDEST PUSH1 0x0 DUP1 PUSH1 0x40 DUP4 DUP6 SUB SLT ISZERO PUSH2 0x159B JUMPI PUSH2 0x159A PUSH2 0x1544 JUMP JUMPDEST JUMPDEST PUSH1 0x0 PUSH2 0x15A9 DUP6 DUP3 DUP7 ADD PUSH2 0x156F JUMP JUMPDEST SWAP3 POP POP PUSH1 0x20 PUSH2 0x15BA DUP6 DUP3 DUP7 ADD PUSH2 0x156F JUMP JUMPDEST SWAP2 POP POP SWAP3 POP SWAP3 SWAP1 POP JUMP JUMPDEST PUSH2 0x15CD DUP2 PUSH2 0x154E JUMP JUMPDEST DUP3 MSTORE POP POP JUMP JUMPDEST PUSH1 0x0 DUP2 MLOAD SWAP1 POP SWAP2 SWAP1 POP JUMP JUMPDEST PUSH1 0x0 DUP3 DUP3 MSTORE PUSH1 0x20 DUP3 ADD SWAP1 POP SWAP3 SWAP2 POP POP JUMP JUMPDEST PUSH1 0x0 JUMPDEST DUP4 DUP2 LT ISZERO PUSH2 0x160D JUMPI DUP1 DUP3 ADD MLOAD DUP2 DUP5 ADD MSTORE PUSH1 0x20 DUP2 ADD SWAP1 POP PUSH2 0x15F2 JUMP JUMPDEST PUSH1 0x0 DUP5 DUP5 ADD MSTORE POP POP POP POP JUMP JUMPDEST PUSH1 0x0 PUSH1 0x1F NOT PUSH1 0x1F DUP4 ADD AND SWAP1 POP SWAP2 SWAP1 POP JUMP JUMPDEST PUSH1 0x0 PUSH2 0x1635 DUP3 PUSH2 0x15D3 JUMP JUMPDEST PUSH2 0x163F DUP2 DUP6 PUSH2 0x15DE JUMP JUMPDEST SWAP4 POP PUSH2 0x164F DUP2 DUP6 PUSH1 0x20 DUP7 ADD PUSH2 0x15EF JUMP JUMPDEST PUSH2 0x1658 DUP2 PUSH2 0x1619 JUMP JUMPDEST DUP5 ADD SWAP2 POP POP SWAP3 SWAP2 POP POP JUMP JUMPDEST PUSH1 0x0 PUSH20 0xFFFFFFFFFFFFFFFFFFFFFFFFFFFFFFFFFFFFFFFF DUP3 AND SWAP1 POP SWAP2 SWAP1 POP JUMP JUMPDEST PUSH1 0x0 PUSH2 0x168E DUP3 PUSH2 0x1663 JUMP JUMPDEST SWAP1 POP SWAP2 SWAP1 POP JUMP JUMPDEST PUSH2 0x169E DUP2 PUSH2 0x1683 JUMP JUMPDEST DUP3 MSTORE POP POP JUMP JUMPDEST PUSH1 0x0 DUP2 ISZERO ISZERO SWAP1 POP SWAP2 SWAP1 POP JUMP JUMPDEST PUSH2 0x16B9 DUP2 PUSH2 0x16A4 JUMP JUMPDEST DUP3 MSTORE POP POP JUMP JUMPDEST PUSH1 0x0 PUSH1 0xA0 DUP3 ADD SWAP1 POP PUSH2 0x16D4 PUSH1 0x0 DUP4 ADD DUP9 PUSH2 0x15C4 JUMP JUMPDEST DUP2 DUP2 SUB PUSH1 0x20 DUP4 ADD MSTORE PUSH2 0x16E6 DUP2 DUP8 PUSH2 0x162A JUMP JUMPDEST SWAP1 POP DUP2 DUP2 SUB PUSH1 0x40 DUP4 ADD MSTORE PUSH2 0x16FA DUP2 DUP7 PUSH2 0x162A JUMP JUMPDEST SWAP1 POP PUSH2 0x1709 PUSH1 0x60 DUP4 ADD DUP6 PUSH2 0x1695 JUMP JUMPDEST PUSH2 0x1716 PUSH1 0x80 DUP4 ADD DUP5 PUSH2 0x16B0 JUMP JUMPDEST SWAP7 SWAP6 POP POP POP POP POP POP JUMP JUMPDEST PUSH1 0x0 DUP1 REVERT JUMPDEST PUSH1 0x0 DUP1 REVERT JUMPDEST PUSH32 0x4E487B7100000000000000000000000000000000000000000000000000000000 PUSH1 0x0 MSTORE PUSH1 0x41 PUSH1 0x4 MSTORE PUSH1 0x24 PUSH1 0x0 REVERT JUMPDEST PUSH2 0x1762 DUP3 PUSH2 0x1619 JUMP JUMPDEST DUP2 ADD DUP2 DUP2 LT PUSH8 0xFFFFFFFFFFFFFFFF DUP3 GT OR ISZERO PUSH2 0x1781 JUMPI PUSH2 0x1780 PUSH2 0x172A JUMP JUMPDEST JUMPDEST DUP1 PUSH1 0x40 MSTORE POP POP POP JUMP JUMPDEST PUSH1 0x0 PUSH2 0x1794 PUSH2 0x153A JUMP JUMPDEST SWAP1 POP PUSH2 0x17A0 DUP3 DUP3 PUSH2 0x1759 JUMP JUMPDEST SWAP2 SWAP1 POP JUMP JUMPDEST PUSH1 0x0 PUSH8 0xFFFFFFFFFFFFFFFF DUP3 GT ISZERO PUSH2 0x17C0 JUMPI PUSH2 0x17BF PUSH2 0x172A JUMP JUMPDEST JUMPDEST PUSH2 0x17C9 DUP3 PUSH2 0x1619 JUMP JUMPDEST SWAP1 POP PUSH1 0x20 DUP2 ADD SWAP1 POP SWAP2 SWAP1 POP JUMP JUMPDEST DUP3 DUP2 DUP4 CALLDATACOPY PUSH1 0x0 DUP4 DUP4 ADD MSTORE POP POP POP JUMP JUMPDEST PUSH1 0x0 PUSH2 0x17F8 PUSH2 0x17F3 DUP5 PUSH2 0x17A5 JUMP JUMPDEST PUSH2 0x178A JUMP JUMPDEST SWAP1 POP DUP3 DUP2 MSTORE PUSH1 0x20 DUP2 ADD DUP5 DUP5 DUP5 ADD GT ISZERO PUSH2 0x1814 JUMPI PUSH2 0x1813 PUSH2 0x1725 JUMP JUMPDEST JUMPDEST PUSH2 0x181F DUP5 DUP3 DUP6 PUSH2 0x17D6 JUMP JUMPDEST POP SWAP4 SWAP3 POP POP POP JUMP JUMPDEST PUSH1 0x0 DUP3 PUSH1 0x1F DUP4 ADD SLT PUSH2 0x183C JUMPI PUSH2 0x183B PUSH2 0x1720 JUMP JUMPDEST JUMPDEST DUP2 CALLDATALOAD PUSH2 0x184C DUP5 DUP3 PUSH1 0x20 DUP7 ADD PUSH2 0x17E5 JUMP JUMPDEST SWAP2 POP POP SWAP3 SWAP2 POP POP JUMP JUMPDEST PUSH1 0x0 DUP1 PUSH1 0x0 PUSH1 0x60 DUP5 DUP7 SUB SLT ISZERO PUSH2 0x186E JUMPI PUSH2 0x186D PUSH2 0x1544 JUMP JUMPDEST JUMPDEST PUSH1 0x0 DUP5 ADD CALLDATALOAD PUSH8 0xFFFFFFFFFFFFFFFF DUP2 GT ISZERO PUSH2 0x188C JUMPI PUSH2 0x188B PUSH2 0x1549 JUMP JUMPDEST JUMPDEST PUSH2 0x1898 DUP7 DUP3 DUP8 ADD PUSH2 0x1827 JUMP JUMPDEST SWAP4 POP POP PUSH1 0x20 PUSH2 0x18A9 DUP7 DUP3 DUP8 ADD PUSH2 0x156F JUMP JUMPDEST SWAP3 POP POP PUSH1 0x40 DUP5 ADD CALLDATALOAD PUSH8 0xFFFFFFFFFFFFFFFF DUP2 GT ISZERO PUSH2 0x18CA JUMPI PUSH2 0x18C9 PUSH2 0x1549 JUMP JUMPDEST JUMPDEST PUSH2 0x18D6 DUP7 DUP3 DUP8 ADD PUSH2 0x1827 JUMP JUMPDEST SWAP2 POP POP SWAP3 POP SWAP3 POP SWAP3 JUMP JUMPDEST PUSH1 0x0 DUP1 PUSH1 0x0 PUSH1 0x60 DUP5 DUP7 SUB SLT ISZERO PUSH2 0x18F9 JUMPI PUSH2 0x18F8 PUSH2 0x1544 JUMP JUMPDEST JUMPDEST PUSH1 0x0 PUSH2 0x1907 DUP7 DUP3 DUP8 ADD PUSH2 0x156F JUMP JUMPDEST SWAP4 POP POP PUSH1 0x20 PUSH2 0x1918 DUP7 DUP3 DUP8 ADD PUSH2 0x156F JUMP JUMPDEST SWAP3 POP POP PUSH1 0x40 DUP5 ADD CALLDATALOAD PUSH8 0xFFFFFFFFFFFFFFFF DUP2 GT ISZERO PUSH2 0x1939 JUMPI PUSH2 0x1938 PUSH2 0x1549 JUMP JUMPDEST JUMPDEST PUSH2 0x1945 DUP7 DUP3 DUP8 ADD PUSH2 0x1827 JUMP JUMPDEST SWAP2 POP POP SWAP3 POP SWAP3 POP SWAP3 JUMP JUMPDEST PUSH1 0x0 PUSH1 0x20 DUP3 DUP5 SUB SLT ISZERO PUSH2 0x1965 JUMPI PUSH2 0x1964 PUSH2 0x1544 JUMP JUMPDEST JUMPDEST PUSH1 0x0 PUSH2 0x1973 DUP5 DUP3 DUP6 ADD PUSH2 0x156F JUMP JUMPDEST SWAP2 POP POP SWAP3 SWAP2 POP POP JUMP JUMPDEST PUSH1 0x0 PUSH1 0x80 DUP3 ADD SWAP1 POP DUP2 DUP2 SUB PUSH1 0x0 DUP4 ADD MSTORE PUSH2 0x1996 DUP2 DUP8 PUSH2 0x162A JUMP JUMPDEST SWAP1 POP PUSH2 0x19A5 PUSH1 0x20 DUP4 ADD DUP7 PUSH2 0x15C4 JUMP JUMPDEST DUP2 DUP2 SUB PUSH1 0x40 DUP4 ADD MSTORE PUSH2 0x19B7 DUP2 DUP6 PUSH2 0x162A JUMP JUMPDEST SWAP1 POP PUSH2 0x19C6 PUSH1 0x60 DUP4 ADD DUP5 PUSH2 0x16B0 JUMP JUMPDEST SWAP6 SWAP5 POP POP POP POP POP JUMP JUMPDEST PUSH2 0x19D8 DUP2 PUSH2 0x1683 JUMP JUMPDEST DUP2 EQ PUSH2 0x19E3 JUMPI PUSH1 0x0 DUP1 REVERT JUMPDEST POP JUMP JUMPDEST PUSH1 0x0 DUP2 CALLDATALOAD SWAP1 POP PUSH2 0x19F5 DUP2 PUSH2 0x19CF JUMP JUMPDEST SWAP3 SWAP2 POP POP JUMP JUMPDEST PUSH1 0x0 PUSH1 0x20 DUP3 DUP5 SUB SLT ISZERO PUSH2 0x1A11 JUMPI PUSH2 0x1A10 PUSH2 0x1544 JUMP JUMPDEST JUMPDEST PUSH1 0x0 PUSH2 0x1A1F DUP5 DUP3 DUP6 ADD PUSH2 0x19E6 JUMP JUMPDEST SWAP2 POP POP SWAP3 SWAP2 POP POP JUMP JUMPDEST PUSH1 0x0 PUSH1 0x20 DUP3 ADD SWAP1 POP PUSH2 0x1A3D PUSH1 0x0 DUP4 ADD DUP5 PUSH2 0x15C4 JUMP JUMPDEST SWAP3 SWAP2 POP POP JUMP JUMPDEST PUSH1 0x0 DUP1 PUSH1 0x40 DUP4 DUP6 SUB SLT ISZERO PUSH2 0x1A5A JUMPI PUSH2 0x1A59 PUSH2 0x1544 JUMP JUMPDEST JUMPDEST PUSH1 0x0 DUP4 ADD CALLDATALOAD PUSH8 0xFFFFFFFFFFFFFFFF DUP2 GT ISZERO PUSH2 0x1A78 JUMPI PUSH2 0x1A77 PUSH2 0x1549 JUMP JUMPDEST JUMPDEST PUSH2 0x1A84 DUP6 DUP3 DUP7 ADD PUSH2 0x1827 JUMP JUMPDEST SWAP3 POP POP PUSH1 0x20 DUP4 ADD CALLDATALOAD PUSH8 0xFFFFFFFFFFFFFFFF DUP2 GT ISZERO PUSH2 0x1AA5 JUMPI PUSH2 0x1AA4 PUSH2 0x1549 JUMP JUMPDEST JUMPDEST PUSH2 0x1AB1 DUP6 DUP3 DUP7 ADD PUSH2 0x1827 JUMP JUMPDEST SWAP2 POP POP SWAP3 POP SWAP3 SWAP1 POP JUMP JUMPDEST PUSH1 0x0 DUP1 PUSH1 0x0 DUP1 PUSH1 0x80 DUP6 DUP8 SUB SLT ISZERO PUSH2 0x1AD5 JUMPI PUSH2 0x1AD4 PUSH2 0x1544 JUMP JUMPDEST JUMPDEST PUSH1 0x0 PUSH2 0x1AE3 DUP8 DUP3 DUP9 ADD PUSH2 0x156F JUMP JUMPDEST SWAP5 POP POP PUSH1 0x20 PUSH2 0x1AF4 DUP8 DUP3 DUP9 ADD PUSH2 0x156F JUMP JUMPDEST SWAP4 POP POP PUSH1 0x40 PUSH2 0x1B05 DUP8 DUP3 DUP9 ADD PUSH2 0x156F JUMP JUMPDEST SWAP3 POP POP PUSH1 0x60 DUP6 ADD CALLDATALOAD PUSH8 0xFFFFFFFFFFFFFFFF DUP2 GT ISZERO PUSH2 0x1B26 JUMPI PUSH2 0x1B25 PUSH2 0x1549 JUMP JUMPDEST JUMPDEST PUSH2 0x1B32 DUP8 DUP3 DUP9 ADD PUSH2 0x1827 JUMP JUMPDEST SWAP2 POP POP SWAP3 SWAP6 SWAP2 SWAP5 POP SWAP3 POP JUMP JUMPDEST PUSH1 0x0 PUSH1 0xC0 DUP3 ADD SWAP1 POP PUSH2 0x1B53 PUSH1 0x0 DUP4 ADD DUP10 PUSH2 0x15C4 JUMP JUMPDEST PUSH2 0x1B60 PUSH1 0x20 DUP4 ADD DUP9 PUSH2 0x15C4 JUMP JUMPDEST PUSH2 0x1B6D PUSH1 0x40 DUP4 ADD DUP8 PUSH2 0x15C4 JUMP JUMPDEST PUSH2 0x1B7A PUSH1 0x60 DUP4 ADD DUP7 PUSH2 0x16B0 JUMP JUMPDEST PUSH2 0x1B87 PUSH1 0x80 DUP4 ADD DUP6 PUSH2 0x16B0 JUMP JUMPDEST DUP2 DUP2 SUB PUSH1 0xA0 DUP4 ADD MSTORE PUSH2 0x1B99 DUP2 DUP5 PUSH2 0x162A JUMP JUMPDEST SWAP1 POP SWAP8 SWAP7 POP POP POP POP POP POP POP JUMP JUMPDEST PUSH1 0x0 PUSH1 0x80 DUP3 ADD SWAP1 POP PUSH2 0x1BBB PUSH1 0x0 DUP4 ADD DUP8 PUSH2 0x1695 JUMP JUMPDEST DUP2 DUP2 SUB PUSH1 0x20 DUP4 ADD MSTORE PUSH2 0x1BCD DUP2 DUP7 PUSH2 0x162A JUMP JUMPDEST SWAP1 POP DUP2 DUP2 SUB PUSH1 0x40 DUP4 ADD MSTORE PUSH2 0x1BE1 DUP2 DUP6 PUSH2 0x162A JUMP JUMPDEST SWAP1 POP PUSH2 0x1BF0 PUSH1 0x60 DUP4 ADD DUP5 PUSH2 0x16B0 JUMP JUMPDEST SWAP6 SWAP5 POP POP POP POP POP JUMP JUMPDEST PUSH1 0x0 DUP1 PUSH1 0x0 PUSH1 0x60 DUP5 DUP7 SUB SLT ISZERO PUSH2 0x1C12 JUMPI PUSH2 0x1C11 PUSH2 0x1544 JUMP JUMPDEST JUMPDEST PUSH1 0x0 PUSH2 0x1C20 DUP7 DUP3 DUP8 ADD PUSH2 0x156F JUMP JUMPDEST SWAP4 POP POP PUSH1 0x20 DUP5 ADD CALLDATALOAD PUSH8 0xFFFFFFFFFFFFFFFF DUP2 GT ISZERO PUSH2 0x1C41 JUMPI PUSH2 0x1C40 PUSH2 0x1549 JUMP JUMPDEST JUMPDEST PUSH2 0x1C4D DUP7 DUP3 DUP8 ADD PUSH2 0x1827 JUMP JUMPDEST SWAP3 POP POP PUSH1 0x40 DUP5 ADD CALLDATALOAD PUSH8 0xFFFFFFFFFFFFFFFF DUP2 GT ISZERO PUSH2 0x1C6E JUMPI PUSH2 0x1C6D PUSH2 0x1549 JUMP JUMPDEST JUMPDEST PUSH2 0x1C7A DUP7 DUP3 DUP8 ADD PUSH2 0x1827 JUMP JUMPDEST SWAP2 POP POP SWAP3 POP SWAP3 POP SWAP3 JUMP JUMPDEST PUSH32 0x4E487B7100000000000000000000000000000000000000000000000000000000 PUSH1 0x0 MSTORE PUSH1 0x22 PUSH1 0x4 MSTORE PUSH1 0x24 PUSH1 0x0 REVERT JUMPDEST PUSH1 0x0 PUSH1 0x2 DUP3 DIV SWAP1 POP PUSH1 0x1 DUP3 AND DUP1 PUSH2 0x1CCB JUMPI PUSH1 0x7F DUP3 AND SWAP2 POP JUMPDEST PUSH1 0x20 DUP3 LT DUP2 SUB PUSH2 0x1CDE JUMPI PUSH2 0x1CDD PUSH2 0x1C84 JUMP JUMPDEST JUMPDEST POP SWAP2 SWAP1 POP JUMP JUMPDEST PUSH32 0x4E487B7100000000000000000000000000000000000000000000000000000000 PUSH1 0x0 MSTORE PUSH1 0x11 PUSH1 0x4 MSTORE PUSH1 0x24 PUSH1 0x0 REVERT JUMPDEST PUSH1 0x0 PUSH2 0x1D1E DUP3 PUSH2 0x154E JUMP JUMPDEST SWAP2 POP PUSH32 0xFFFFFFFFFFFFFFFFFFFFFFFFFFFFFFFFFFFFFFFFFFFFFFFFFFFFFFFFFFFFFFFF DUP3 SUB PUSH2 0x1D50 JUMPI PUSH2 0x1D4F PUSH2 0x1CE4 JUMP JUMPDEST JUMPDEST PUSH1 0x1 DUP3 ADD SWAP1 POP SWAP2 SWAP1 POP JUMP JUMPDEST PUSH1 0x0 DUP2 SWAP1 POP DUP2 PUSH1 0x0 MSTORE PUSH1 0x20 PUSH1 0x0 KECCAK256 SWAP1 POP SWAP2 SWAP1 POP JUMP JUMPDEST PUSH1 0x0 PUSH1 0x20 PUSH1 0x1F DUP4 ADD DIV SWAP1 POP SWAP2 SWAP1 POP JUMP JUMPDEST PUSH1 0x0 DUP3 DUP3 SHL SWAP1 POP SWAP3 SWAP2 POP POP JUMP JUMPDEST PUSH1 0x0 PUSH1 0x8 DUP4 MUL PUSH2 0x1DBD PUSH32 0xFFFFFFFFFFFFFFFFFFFFFFFFFFFFFFFFFFFFFFFFFFFFFFFFFFFFFFFFFFFFFFFF DUP3 PUSH2 0x1D80 JUMP JUMPDEST PUSH2 0x1DC7 DUP7 DUP4 PUSH2 0x1D80 JUMP JUMPDEST SWAP6 POP DUP1 NOT DUP5 AND SWAP4 POP DUP1 DUP7 AND DUP5 OR SWAP3 POP POP POP SWAP4 SWAP3 POP POP POP JUMP JUMPDEST PUSH1 0x0 DUP2 SWAP1 POP SWAP2 SWAP1 POP JUMP JUMPDEST PUSH1 0x0 PUSH2 0x1E04 PUSH2 0x1DFF PUSH2 0x1DFA DUP5 PUSH2 0x154E JUMP JUMPDEST PUSH2 0x1DDF JUMP JUMPDEST PUSH2 0x154E JUMP JUMPDEST SWAP1 POP SWAP2 SWAP1 POP JUMP JUMPDEST PUSH1 0x0 DUP2 SWAP1 POP SWAP2 SWAP1 POP JUMP JUMPDEST PUSH2 0x1E1E DUP4 PUSH2 0x1DE9 JUMP JUMPDEST PUSH2 0x1E32 PUSH2 0x1E2A DUP3 PUSH2 0x1E0B JUMP JUMPDEST DUP5 DUP5 SLOAD PUSH2 0x1D8D JUMP JUMPDEST DUP3 SSTORE POP POP POP POP JUMP JUMPDEST PUSH1 0x0 SWAP1 JUMP JUMPDEST PUSH2 0x1E47 PUSH2 0x1E3A JUMP JUMPDEST PUSH2 0x1E52 DUP2 DUP5 DUP5 PUSH2 0x1E15 JUMP JUMPDEST POP POP POP JUMP JUMPDEST JUMPDEST DUP2 DUP2 LT ISZERO PUSH2 0x1E76 JUMPI PUSH2 0x1E6B PUSH1 0x0 DUP3 PUSH2 0x1E3F JUMP JUMPDEST PUSH1 0x1 DUP2 ADD SWAP1 POP PUSH2 0x1E58 JUMP JUMPDEST POP POP JUMP JUMPDEST PUSH1 0x1F DUP3 GT ISZERO PUSH2 0x1EBB JUMPI PUSH2 0x1E8C DUP2 PUSH2 0x1D5B JUMP JUMPDEST PUSH2 0x1E95 DUP5 PUSH2 0x1D70 JUMP JUMPDEST DUP2 ADD PUSH1 0x20 DUP6 LT ISZERO PUSH2 0x1EA4 JUMPI DUP2 SWAP1 POP JUMPDEST PUSH2 0x1EB8 PUSH2 0x1EB0 DUP6 PUSH2 0x1D70 JUMP JUMPDEST DUP4 ADD DUP3 PUSH2 0x1E57 JUMP JUMPDEST POP POP JUMPDEST POP POP POP JUMP JUMPDEST PUSH1 0x0 DUP3 DUP3 SHR SWAP1 POP SWAP3 SWAP2 POP POP JUMP JUMPDEST PUSH1 0x0 PUSH2 0x1EDE PUSH1 0x0 NOT DUP5 PUSH1 0x8 MUL PUSH2 0x1EC0 JUMP JUMPDEST NOT DUP1 DUP4 AND SWAP2 POP POP SWAP3 SWAP2 POP POP JUMP JUMPDEST PUSH1 0x0 PUSH2 0x1EF7 DUP4 DUP4 PUSH2 0x1ECD JUMP JUMPDEST SWAP2 POP DUP3 PUSH1 0x2 MUL DUP3 OR SWAP1 POP SWAP3 SWAP2 POP POP JUMP JUMPDEST PUSH2 0x1F10 DUP3 PUSH2 0x15D3 JUMP JUMPDEST PUSH8 0xFFFFFFFFFFFFFFFF DUP2 GT ISZERO PUSH2 0x1F29 JUMPI PUSH2 0x1F28 PUSH2 0x172A JUMP JUMPDEST JUMPDEST PUSH2 0x1F33 DUP3 SLOAD PUSH2 0x1CB3 JUMP JUMPDEST PUSH2 0x1F3E DUP3 DUP3 DUP6 PUSH2 0x1E7A JUMP JUMPDEST PUSH1 0x0 PUSH1 0x20 SWAP1 POP PUSH1 0x1F DUP4 GT PUSH1 0x1 DUP2 EQ PUSH2 0x1F71 JUMPI PUSH1 0x0 DUP5 ISZERO PUSH2 0x1F5F JUMPI DUP3 DUP8 ADD MLOAD SWAP1 POP JUMPDEST PUSH2 0x1F69 DUP6 DUP3 PUSH2 0x1EEB JUMP JUMPDEST DUP7 SSTORE POP PUSH2 0x1FD1 JUMP JUMPDEST PUSH1 0x1F NOT DUP5 AND PUSH2 0x1F7F DUP7 PUSH2 0x1D5B JUMP JUMPDEST PUSH1 0x0 JUMPDEST DUP3 DUP2 LT ISZERO PUSH2 0x1FA7 JUMPI DUP5 DUP10 ADD MLOAD DUP3 SSTORE PUSH1 0x1 DUP3 ADD SWAP2 POP PUSH1 0x20 DUP6 ADD SWAP5 POP PUSH1 0x20 DUP2 ADD SWAP1 POP PUSH2 0x1F82 JUMP JUMPDEST DUP7 DUP4 LT ISZERO PUSH2 0x1FC4 JUMPI DUP5 DUP10 ADD MLOAD PUSH2 0x1FC0 PUSH1 0x1F DUP10 AND DUP3 PUSH2 0x1ECD JUMP JUMPDEST DUP4 SSTORE POP JUMPDEST PUSH1 0x1 PUSH1 0x2 DUP9 MUL ADD DUP9 SSTORE POP POP POP JUMPDEST POP POP POP POP POP POP JUMP JUMPDEST PUSH1 0x0 PUSH1 0x60 DUP3 ADD SWAP1 POP PUSH2 0x1FEE PUSH1 0x0 DUP4 ADD DUP7 PUSH2 0x15C4 JUMP JUMPDEST DUP2 DUP2 SUB PUSH1 0x20 DUP4 ADD MSTORE PUSH2 0x2000 DUP2 DUP6 PUSH2 0x162A JUMP JUMPDEST SWAP1 POP PUSH2 0x200F PUSH1 0x40 DUP4 ADD DUP5 PUSH2 0x15C4 JUMP JUMPDEST SWAP5 SWAP4 POP POP POP POP JUMP JUMPDEST PUSH32 0x4E487B7100000000000000000000000000000000000000000000000000000000 PUSH1 0x0 MSTORE PUSH1 0x32 PUSH1 0x4 MSTORE PUSH1 0x24 PUSH1 0x0 REVERT JUMPDEST PUSH32 0x4E6F7420617574686F72697A6564000000000000000000000000000000000000 PUSH1 0x0 DUP3 ADD MSTORE POP JUMP JUMPDEST PUSH1 0x0 PUSH2 0x207C PUSH1 0xE DUP4 PUSH2 0x15DE JUMP JUMPDEST SWAP2 POP PUSH2 0x2087 DUP3 PUSH2 0x2046 JUMP JUMPDEST PUSH1 0x20 DUP3 ADD SWAP1 POP SWAP2 SWAP1 POP JUMP JUMPDEST PUSH1 0x0 PUSH1 0x20 DUP3 ADD SWAP1 POP DUP2 DUP2 SUB PUSH1 0x0 DUP4 ADD MSTORE PUSH2 0x20AB DUP2 PUSH2 0x206F JUMP JUMPDEST SWAP1 POP SWAP2 SWAP1 POP JUMP JUMPDEST PUSH1 0x0 PUSH1 0x40 DUP3 ADD SWAP1 POP PUSH2 0x20C7 PUSH1 0x0 DUP4 ADD DUP6 PUSH2 0x15C4 JUMP JUMPDEST DUP2 DUP2 SUB PUSH1 0x20 DUP4 ADD MSTORE PUSH2 0x20D9 DUP2 DUP5 PUSH2 0x162A JUMP JUMPDEST SWAP1 POP SWAP4 SWAP3 POP POP POP JUMP JUMPDEST PUSH1 0x0 PUSH1 0x60 DUP3 ADD SWAP1 POP PUSH2 0x20F7 PUSH1 0x0 DUP4 ADD DUP7 PUSH2 0x15C4 JUMP JUMPDEST DUP2 DUP2 SUB PUSH1 0x20 DUP4 ADD MSTORE PUSH2 0x2109 DUP2 DUP6 PUSH2 0x162A JUMP JUMPDEST SWAP1 POP DUP2 DUP2 SUB PUSH1 0x40 DUP4 ADD MSTORE PUSH2 0x211D DUP2 DUP5 PUSH2 0x162A JUMP JUMPDEST SWAP1 POP SWAP5 SWAP4 POP POP POP POP JUMP JUMPDEST PUSH1 0x0 PUSH1 0x80 DUP3 ADD SWAP1 POP PUSH2 0x213C PUSH1 0x0 DUP4 ADD DUP8 PUSH2 0x15C4 JUMP JUMPDEST PUSH2 0x2149 PUSH1 0x20 DUP4 ADD DUP7 PUSH2 0x15C4 JUMP JUMPDEST PUSH2 0x2156 PUSH1 0x40 DUP4 ADD DUP6 PUSH2 0x15C4 JUMP JUMPDEST DUP2 DUP2 SUB PUSH1 0x60 DUP4 ADD MSTORE PUSH2 0x2168 DUP2 DUP5 PUSH2 0x162A JUMP JUMPDEST SWAP1 POP SWAP6 SWAP5 POP POP POP POP POP JUMP JUMPDEST PUSH32 0x496E76616C6964206461746120696E6465780000000000000000000000000000 PUSH1 0x0 DUP3 ADD MSTORE POP JUMP JUMPDEST PUSH1 0x0 PUSH2 0x21A9 PUSH1 0x12 DUP4 PUSH2 0x15DE JUMP JUMPDEST SWAP2 POP PUSH2 0x21B4 DUP3 PUSH2 0x2173 JUMP JUMPDEST PUSH1 0x20 DUP3 ADD SWAP1 POP SWAP2 SWAP1 POP JUMP JUMPDEST PUSH1 0x0 PUSH1 0x20 DUP3 ADD SWAP1 POP DUP2 DUP2 SUB PUSH1 0x0 DUP4 ADD MSTORE PUSH2 0x21D8 DUP2 PUSH2 0x219C JUMP JUMPDEST SWAP1 POP SWAP2 SWAP1 POP JUMP JUMPDEST PUSH32 0x4461746120616C72656164792061636365707465640000000000000000000000 PUSH1 0x0 DUP3 ADD MSTORE POP JUMP JUMPDEST PUSH1 0x0 PUSH2 0x2215 PUSH1 0x15 DUP4 PUSH2 0x15DE JUMP JUMPDEST SWAP2 POP PUSH2 0x2220 DUP3 PUSH2 0x21DF JUMP JUMPDEST PUSH1 0x20 DUP3 ADD SWAP1 POP SWAP2 SWAP1 POP JUMP JUMPDEST PUSH1 0x0 PUSH1 0x20 DUP3 ADD SWAP1 POP DUP2 DUP2 SUB PUSH1 0x0 DUP4 ADD MSTORE PUSH2 0x2244 DUP2 PUSH2 0x2208 JUMP JUMPDEST SWAP1 POP SWAP2 SWAP1 POP JUMP JUMPDEST PUSH1 0x0 PUSH1 0x40 DUP3 ADD SWAP1 POP PUSH2 0x2260 PUSH1 0x0 DUP4 ADD DUP6 PUSH2 0x15C4 JUMP JUMPDEST PUSH2 0x226D PUSH1 0x20 DUP4 ADD DUP5 PUSH2 0x15C4 JUMP JUMPDEST SWAP4 SWAP3 POP POP POP JUMP JUMPDEST PUSH32 0x4E6F742061207265676973746572656420646F63746F72000000000000000000 PUSH1 0x0 DUP3 ADD MSTORE POP JUMP JUMPDEST PUSH1 0x0 PUSH2 0x22AA PUSH1 0x17 DUP4 PUSH2 0x15DE JUMP JUMPDEST SWAP2 POP PUSH2 0x22B5 DUP3 PUSH2 0x2274 JUMP JUMPDEST PUSH1 0x20 DUP3 ADD SWAP1 POP SWAP2 SWAP1 POP JUMP JUMPDEST PUSH1 0x0 PUSH1 0x20 DUP3 ADD SWAP1 POP DUP2 DUP2 SUB PUSH1 0x0 DUP4 ADD MSTORE PUSH2 0x22D9 DUP2 PUSH2 0x229D JUMP JUMPDEST SWAP1 POP SWAP2 SWAP1 POP JUMP JUMPDEST PUSH1 0x0 DUP2 SLOAD PUSH2 0x22ED DUP2 PUSH2 0x1CB3 JUMP JUMPDEST PUSH2 0x22F7 DUP2 DUP7 PUSH2 0x15DE JUMP JUMPDEST SWAP5 POP PUSH1 0x1 DUP3 AND PUSH1 0x0 DUP2 EQ PUSH2 0x2312 JUMPI PUSH1 0x1 DUP2 EQ PUSH2 0x2328 JUMPI PUSH2 0x235B JUMP JUMPDEST PUSH1 0xFF NOT DUP4 AND DUP7 MSTORE DUP2 ISZERO ISZERO PUSH1 0x20 MUL DUP7 ADD SWAP4 POP PUSH2 0x235B JUMP JUMPDEST PUSH2 0x2331 DUP6 PUSH2 0x1D5B JUMP JUMPDEST PUSH1 0x0 JUMPDEST DUP4 DUP2 LT ISZERO PUSH2 0x2353 JUMPI DUP2 SLOAD DUP2 DUP10 ADD MSTORE PUSH1 0x1 DUP3 ADD SWAP2 POP PUSH1 0x20 DUP2 ADD SWAP1 POP PUSH2 0x2334 JUMP JUMPDEST DUP1 DUP9 ADD SWAP6 POP POP POP JUMPDEST POP POP POP SWAP3 SWAP2 POP POP JUMP JUMPDEST PUSH1 0x0 PUSH1 0xA0 DUP3 ADD SWAP1 POP PUSH2 0x2379 PUSH1 0x0 DUP4 ADD DUP9 PUSH2 0x15C4 JUMP JUMPDEST PUSH2 0x2386 PUSH1 0x20 DUP4 ADD DUP8 PUSH2 0x15C4 JUMP JUMPDEST DUP2 DUP2 SUB PUSH1 0x40 DUP4 ADD MSTORE PUSH2 0x2398 DUP2 DUP7 PUSH2 0x22E0 JUMP JUMPDEST SWAP1 POP DUP2 DUP2 SUB PUSH1 0x60 DUP4 ADD MSTORE PUSH2 0x23AC DUP2 DUP6 PUSH2 0x162A JUMP JUMPDEST SWAP1 POP PUSH2 0x23BB PUSH1 0x80 DUP4 ADD DUP5 PUSH2 0x1695 JUMP JUMPDEST SWAP7 SWAP6 POP POP POP POP POP POP JUMP JUMPDEST PUSH32 0x4E6F206D6F64696669636174696F6E20746F2061636365707400000000000000 PUSH1 0x0 DUP3 ADD MSTORE POP JUMP JUMPDEST PUSH1 0x0 PUSH2 0x23FB PUSH1 0x19 DUP4 PUSH2 0x15DE JUMP JUMPDEST SWAP2 POP PUSH2 0x2406 DUP3 PUSH2 0x23C5 JUMP JUMPDEST PUSH1 0x20 DUP3 ADD SWAP1 POP SWAP2 SWAP1 POP JUMP JUMPDEST PUSH1 0x0 PUSH1 0x20 DUP3 ADD SWAP1 POP DUP2 DUP2 SUB PUSH1 0x0 DUP4 ADD MSTORE PUSH2 0x242A DUP2 PUSH2 0x23EE JUMP JUMPDEST SWAP1 POP SWAP2 SWAP1 POP JUMP JUMPDEST PUSH32 0x50617469656E74206E6F74207265676973746572656400000000000000000000 PUSH1 0x0 DUP3 ADD MSTORE POP JUMP JUMPDEST PUSH1 0x0 PUSH2 0x2467 PUSH1 0x16 DUP4 PUSH2 0x15DE JUMP JUMPDEST SWAP2 POP PUSH2 0x2472 DUP3 PUSH2 0x2431 JUMP JUMPDEST PUSH1 0x20 DUP3 ADD SWAP1 POP SWAP2 SWAP1 POP JUMP JUMPDEST PUSH1 0x0 PUSH1 0x20 DUP3 ADD SWAP1 POP DUP2 DUP2 SUB PUSH1 0x0 DUP4 ADD MSTORE PUSH2 0x2496 DUP2 PUSH2 0x245A JUMP JUMPDEST SWAP1 POP SWAP2 SWAP1 POP JUMP JUMPDEST PUSH1 0x0 PUSH1 0xA0 DUP3 ADD SWAP1 POP PUSH2 0x24B2 PUSH1 0x0 DUP4 ADD DUP9 PUSH2 0x15C4 JUMP JUMPDEST PUSH2 0x24BF PUSH1 0x20 DUP4 ADD DUP8 PUSH2 0x15C4 JUMP JUMPDEST DUP2 DUP2 SUB PUSH1 0x40 DUP4 ADD MSTORE PUSH2 0x24D1 DUP2 DUP7 PUSH2 0x162A JUMP JUMPDEST SWAP1 POP DUP2 DUP2 SUB PUSH1 0x60 DUP4 ADD MSTORE PUSH2 0x24E5 DUP2 DUP6 PUSH2 0x162A JUMP JUMPDEST SWAP1 POP PUSH2 0x24F4 PUSH1 0x80 DUP4 ADD DUP5 PUSH2 0x1695 JUMP JUMPDEST SWAP7 SWAP6 POP POP POP POP POP POP JUMP INVALID LOG2 PUSH5 0x6970667358 0x22 SLT KECCAK256 SLT 0xE6 0xC9 0x27 SWAP9 0xAB 0x21 PUSH8 0x199125FBD9C7A171 0x25 ISZERO 0xE2 0xD1 0x29 PUSH31 0x15BD83242719CDB7B44F64736F6C634300081B003300000000000000000000 "},"methodIdentifiers":{"acceptAppointmentModification(uint256,uint256)":"eba0c90a","acceptHealthData(uint256,uint256)":"c3dba6e4","addHealthData(uint256,string,string)":"ef334472","addressToDoctorId(address)":"833a5270","addressToPatientId(address)":"96197d20","appointments(uint256,uint256)":"cd9b33ee","createAppointment(uint256,uint256,uint256,string)":"891b14d3","doctorDetails(uint256)":"e6c0b5d2","modifyAppointment(uint256,uint256,string)":"33abc51f","modifyHealthData(uint256,uint256,string)":"c75b8e9b","patientData(uint256,uint256)":"085e3a8a","patientDetails(uint256)":"7e4f5e4c","registerDoctor(string,string)":"833b46bb","registerPatient(string,uint256,string)":"1d14c36e"}}}}}